Component: ARM Compiler 5.06 update 7 (build 960) Tool: armlink [4d3601]

==============================================================================

Section Cross References

    startup_stm32f103xb.o(RESET) refers to startup_stm32f103xb.o(STACK) for __initial_sp
    startup_stm32f103xb.o(RESET) refers to startup_stm32f103xb.o(.text) for Reset_Handler
    startup_stm32f103xb.o(RESET) refers to stm32f1xx_it.o(i.NMI_Handler) for NMI_Handler
    startup_stm32f103xb.o(RESET) refers to stm32f1xx_it.o(i.HardFault_Handler) for HardFault_Handler
    startup_stm32f103xb.o(RESET) refers to stm32f1xx_it.o(i.MemManage_Handler) for MemManage_Handler
    startup_stm32f103xb.o(RESET) refers to stm32f1xx_it.o(i.BusFault_Handler) for BusFault_Handler
    startup_stm32f103xb.o(RESET) refers to stm32f1xx_it.o(i.UsageFault_Handler) for UsageFault_Handler
    startup_stm32f103xb.o(RESET) refers to stm32f1xx_it.o(i.SVC_Handler) for SVC_Handler
    startup_stm32f103xb.o(RESET) refers to stm32f1xx_it.o(i.DebugMon_Handler) for DebugMon_Handler
    startup_stm32f103xb.o(RESET) refers to stm32f1xx_it.o(i.PendSV_Handler) for PendSV_Handler
    startup_stm32f103xb.o(RESET) refers to stm32f1xx_it.o(i.SysTick_Handler) for SysTick_Handler
    startup_stm32f103xb.o(RESET) refers to stm32f1xx_it.o(i.DMA1_Channel3_IRQHandler) for DMA1_Channel3_IRQHandler
    startup_stm32f103xb.o(.text) refers to system_stm32f1xx.o(i.SystemInit) for SystemInit
    startup_stm32f103xb.o(.text) refers to entry.o(.ARM.Collect$$$$00000000) for __main
    main.o(i.SystemClock_Config) refers to memseta.o(.text) for __aeabi_memclr4
    main.o(i.SystemClock_Config) refers to stm32f1xx_hal_rcc.o(i.HAL_RCC_OscConfig) for HAL_RCC_OscConfig
    main.o(i.SystemClock_Config) refers to stm32f1xx_hal_rcc.o(i.HAL_RCC_ClockConfig) for HAL_RCC_ClockConfig
    main.o(i.main) refers to stm32f1xx_hal.o(i.HAL_Init) for HAL_Init
==============================================================================

Removing Unused input sections from the image.

    Removing startup_stm32f103xb.o(HEAP), (512 bytes).
    Removing main.o(.rev16_text), (4 bytes).
    Removing main.o(.revsh_text), (4 bytes).
    Removing main.o(.rrx_text), (6 bytes).
    Removing gpio.o(.rev16_text), (4 bytes).
    Removing gpio.o(.revsh_text), (4 bytes).
    Removing gpio.o(.rrx_text), (6 bytes).
    Removing dma.o(.rev16_text), (4 bytes).
    Removing dma.o(.revsh_text), (4 bytes).
    Removing dma.o(.rrx_text), (6 bytes).
    Removing spi.o(.rev16_text), (4 bytes).
    Removing spi.o(.revsh_text), (4 bytes).
    Removing spi.o(.rrx_text), (6 bytes).
    Removing spi.o(i.HAL_SPI_MspDeInit), (56 bytes).
    Removing stm32f1xx_it.o(.rev16_text), (4 bytes).
    Removing stm32f1xx_it.o(.revsh_text), (4 bytes).
    Removing stm32f1xx_it.o(.rrx_text), (6 bytes).
    Removing stm32f1xx_hal_msp.o(.rev16_text), (4 bytes).
==============================================================================

Image Symbol Table

    Local Symbols

    Symbol Name                              Value     Ov Type        Size  Object(Section)

    ../Core/Src/dma.c                        0x00000000   Number         0  dma.o ABSOLUTE
    ../Core/Src/gpio.c                       0x00000000   Number         0  gpio.o ABSOLUTE
    ../Core/Src/main.c                       0x00000000   Number         0  main.o ABSOLUTE
    ../Core/Src/spi.c                        0x00000000   Number         0  spi.o ABSOLUTE
    ../Core/Src/stm32f1xx_hal_msp.c          0x00000000   Number         0  stm32f1xx_hal_msp.o ABSOLUTE
    ../Core/Src/stm32f1xx_it.c               0x00000000   Number         0  stm32f1xx_it.o ABSOLUTE
    ../Core/Src/system_stm32f1xx.c           0x00000000   Number         0  system_stm32f1xx.o ABSOLUTE
    ../Drivers/STM32F1xx_HAL_Driver/Src/stm32f1xx_hal.c 0x00000000   Number         0  stm32f1xx_hal.o ABSOLUTE
    ../Drivers/STM32F1xx_HAL_Driver/Src/stm32f1xx_hal_cortex.c 0x00000000   Number         0  stm32f1xx_hal_cortex.o ABSOLUTE
    ../Drivers/STM32F1xx_HAL_Driver/Src/stm32f1xx_hal_dma.c 0x00000000   Number         0  stm32f1xx_hal_dma.o ABSOLUTE
    ../Drivers/STM32F1xx_HAL_Driver/Src/stm32f1xx_hal_exti.c 0x00000000   Number         0  stm32f1xx_hal_exti.o ABSOLUTE
    ../Drivers/STM32F1xx_HAL_Driver/Src/stm32f1xx_hal_flash.c 0x00000000   Number         0  stm32f1xx_hal_flash.o ABSOLUTE
    ../Drivers/STM32F1xx_HAL_Driver/Src/stm32f1xx_hal_flash_ex.c 0x00000000   Number         0  stm32f1xx_hal_flash_ex.o ABSOLUTE
    ../Drivers/STM32F1xx_HAL_Driver/Src/stm32f1xx_hal_gpio.c 0x00000000   Number         0  stm32f1xx_hal_gpio.o ABSOLUTE
    ../Drivers/STM32F1xx_HAL_Driver/Src/stm32f1xx_hal_gpio_ex.c 0x00000000   Number         0  stm32f1xx_hal_gpio_ex.o ABSOLUTE
    ../Drivers/STM32F1xx_HAL_Driver/Src/stm32f1xx_hal_pwr.c 0x00000000   Number         0  stm32f1xx_hal_pwr.o ABSOLUTE
    ../Drivers/STM32F1xx_HAL_Driver/Src/stm32f1xx_hal_rcc.c 0x00000000   Number         0  stm32f1xx_hal_rcc.o ABSOLUTE
    ../Drivers/STM32F1xx_HAL_Driver/Src/stm32f1xx_hal_rcc_ex.c 0x00000000   Number         0  stm32f1xx_hal_rcc_ex.o ABSOLUTE
    ../Drivers/STM32F1xx_HAL_Driver/Src/stm32f1xx_hal_spi.c 0x00000000   Number         0  stm32f1xx_hal_spi.o ABSOLUTE
    ../Drivers/STM32F1xx_HAL_Driver/Src/stm32f1xx_hal_tim.c 0x00000000   Number         0  stm32f1xx_hal_tim.o ABSOLUTE
    ../Drivers/STM32F1xx_HAL_Driver/Src/stm32f1xx_hal_tim_ex.c 0x00000000   Number         0  stm32f1xx_hal_tim_ex.o ABSOLUTE
    ../clib/microlib/division.c              0x00000000   Number         0  uldiv.o ABSOLUTE
    ../clib/microlib/division.c              0x00000000   Number         0  uidiv.o ABSOLUTE
    ../clib/microlib/init/entry.s            0x00000000   Number         0  entry9a.o ABSOLUTE
    ../clib/microlib/init/entry.s            0x00000000   Number         0  entry12b.o ABSOLUTE
    ../clib/microlib/init/entry.s            0x00000000   Number         0  entry12a.o ABSOLUTE
    ../clib/microlib/init/entry.s            0x00000000   Number         0  entry10b.o ABSOLUTE
    ../clib/microlib/init/entry.s            0x00000000   Number         0  entry10a.o ABSOLUTE
    ../clib/microlib/init/entry.s            0x00000000   Number         0  entry9b.o ABSOLUTE
    ../clib/microlib/init/entry.s            0x00000000   Number         0  entry8b.o ABSOLUTE
    ../clib/microlib/init/entry.s            0x00000000   Number         0  entry8a.o ABSOLUTE
    ../clib/microlib/init/entry.s            0x00000000   Number         0  entry7b.o ABSOLUTE
    ../clib/microlib/init/entry.s            0x00000000   Number         0  entry7a.o ABSOLUTE
    ../clib/microlib/init/entry.s            0x00000000   Number         0  entry5.o ABSOLUTE
    ../clib/microlib/init/entry.s            0x00000000   Number         0  entry2.o ABSOLUTE
    ../clib/microlib/init/entry.s            0x00000000   Number         0  entry.o ABSOLUTE
    ../clib/microlib/init/entry.s            0x00000000   Number         0  entry11a.o ABSOLUTE
    ../clib/microlib/init/entry.s            0x00000000   Number         0  entry11b.o ABSOLUTE
    ../clib/microlib/longlong.c              0x00000000   Number         0  llushr.o ABSOLUTE
    ../clib/microlib/longlong.c              0x00000000   Number         0  llsshr.o ABSOLUTE
    ../clib/microlib/longlong.c              0x00000000   Number         0  llshl.o ABSOLUTE
    ../clib/microlib/printf/printf.c         0x00000000   Number         0  printfa.o ABSOLUTE
    ../clib/microlib/printf/printf.c         0x00000000   Number         0  printf3.o ABSOLUTE
    ../clib/microlib/printf/printf.c         0x00000000   Number         0  printf2.o ABSOLUTE
    ../clib/microlib/printf/printf.c         0x00000000   Number         0  printf1.o ABSOLUTE
    ../clib/microlib/printf/printf.c         0x00000000   Number         0  printf0.o ABSOLUTE
    ../clib/microlib/printf/printf.c         0x00000000   Number         0  printfb.o ABSOLUTE
    ../clib/microlib/printf/printf.c         0x00000000   Number         0  printf4.o ABSOLUTE
    ../clib/microlib/printf/printf.c         0x00000000   Number         0  printf8.o ABSOLUTE
    ../clib/microlib/printf/printf.c         0x00000000   Number         0  printf7.o ABSOLUTE
    ../clib/microlib/printf/printf.c         0x00000000   Number         0  printf6.o ABSOLUTE
    ../clib/microlib/printf/printf.c         0x00000000   Number         0  printf5.o ABSOLUTE
    ../clib/microlib/stdio/fputc.c           0x00000000   Number         0  fputc.o ABSOLUTE
    ../clib/microlib/stdio/semi.s            0x00000000   Number         0  semi.o ABSOLUTE
    ../clib/microlib/stdio/streams.c         0x00000000   Number         0  stdout.o ABSOLUTE
    ../clib/microlib/string/memset.c         0x00000000   Number         0  memseta.o ABSOLUTE
    ../clib/microlib/stubs.s                 0x00000000   Number         0  iusefp.o ABSOLUTE
    ../clib/microlib/stubs.s                 0x00000000   Number         0  iusesemip.o ABSOLUTE
    ../fplib/microlib/fpadd.c                0x00000000   Number         0  dadd.o ABSOLUTE
    ../fplib/microlib/fpdiv.c                0x00000000   Number         0  ddiv.o ABSOLUTE
    ../fplib/microlib/fpepilogue.c           0x00000000   Number         0  depilogue.o ABSOLUTE
    ../fplib/microlib/fpfix.c                0x00000000   Number         0  dfixul.o ABSOLUTE
    ../fplib/microlib/fpmul.c                0x00000000   Number         0  dmul.o ABSOLUTE
    ..\Core\Src\dma.c                        0x00000000   Number         0  dma.o ABSOLUTE
    ..\Core\Src\gpio.c                       0x00000000   Number         0  gpio.o ABSOLUTE
    ..\Core\Src\main.c                       0x00000000   Number         0  main.o ABSOLUTE
    ..\Core\Src\spi.c                        0x00000000   Number         0  spi.o ABSOLUTE
    ..\Core\Src\stm32f1xx_hal_msp.c          0x00000000   Number         0  stm32f1xx_hal_msp.o ABSOLUTE
    ..\Core\Src\stm32f1xx_it.c               0x00000000   Number         0  stm32f1xx_it.o ABSOLUTE
    ..\Core\Src\system_stm32f1xx.c           0x00000000   Number         0  system_stm32f1xx.o ABSOLUTE
    ..\Drivers\STM32F1xx_HAL_Driver\Src\stm32f1xx_hal.c 0x00000000   Number         0  stm32f1xx_hal.o ABSOLUTE
    ..\Drivers\STM32F1xx_HAL_Driver\Src\stm32f1xx_hal_cortex.c 0x00000000   Number         0  stm32f1xx_hal_cortex.o ABSOLUTE
    ..\Drivers\STM32F1xx_HAL_Driver\Src\stm32f1xx_hal_dma.c 0x00000000   Number         0  stm32f1xx_hal_dma.o ABSOLUTE
    ..\Drivers\STM32F1xx_HAL_Driver\Src\stm32f1xx_hal_exti.c 0x00000000   Number         0  stm32f1xx_hal_exti.o ABSOLUTE
    ..\Drivers\STM32F1xx_HAL_Driver\Src\stm32f1xx_hal_flash.c 0x00000000   Number         0  stm32f1xx_hal_flash.o ABSOLUTE
    ..\Drivers\STM32F1xx_HAL_Driver\Src\stm32f1xx_hal_flash_ex.c 0x00000000   Number         0  stm32f1xx_hal_flash_ex.o ABSOLUTE
    ..\Drivers\STM32F1xx_HAL_Driver\Src\stm32f1xx_hal_gpio.c 0x00000000   Number         0  stm32f1xx_hal_gpio.o ABSOLUTE
    ..\Drivers\STM32F1xx_HAL_Driver\Src\stm32f1xx_hal_gpio_ex.c 0x00000000   Number         0  stm32f1xx_hal_gpio_ex.o ABSOLUTE
    ..\Drivers\STM32F1xx_HAL_Driver\Src\stm32f1xx_hal_pwr.c 0x00000000   Number         0  stm32f1xx_hal_pwr.o ABSOLUTE
    ..\Drivers\STM32F1xx_HAL_Driver\Src\stm32f1xx_hal_rcc.c 0x00000000   Number         0  stm32f1xx_hal_rcc.o ABSOLUTE
    ..\Drivers\STM32F1xx_HAL_Driver\Src\stm32f1xx_hal_rcc_ex.c 0x00000000   Number         0  stm32f1xx_hal_rcc_ex.o ABSOLUTE
    ..\Drivers\STM32F1xx_HAL_Driver\Src\stm32f1xx_hal_spi.c 0x00000000   Number         0  stm32f1xx_hal_spi.o ABSOLUTE
    ..\Drivers\STM32F1xx_HAL_Driver\Src\stm32f1xx_hal_tim.c 0x00000000   Number         0  stm32f1xx_hal_tim.o ABSOLUTE
    ..\Drivers\STM32F1xx_HAL_Driver\Src\stm32f1xx_hal_tim_ex.c 0x00000000   Number         0  stm32f1xx_hal_tim_ex.o ABSOLUTE
    ..\HARDWARE\oled_driver.c                0x00000000   Number         0  oled_driver.o ABSOLUTE
    ..\U8g2\csrc\mui.c                       0x00000000   Number         0  mui.o ABSOLUTE
    ..\U8g2\csrc\mui_u8g2.c                  0x00000000   Number         0  mui_u8g2.o ABSOLUTE
    ..\U8g2\csrc\u8g2_bitmap.c               0x00000000   Number         0  u8g2_bitmap.o ABSOLUTE
    ..\U8g2\csrc\u8g2_box.c                  0x00000000   Number         0  u8g2_box.o ABSOLUTE
    ..\U8g2\csrc\u8g2_buffer.c               0x00000000   Number         0  u8g2_buffer.o ABSOLUTE
    ..\U8g2\csrc\u8g2_button.c               0x00000000   Number         0  u8g2_button.o ABSOLUTE
    ..\U8g2\csrc\u8g2_circle.c               0x00000000   Number         0  u8g2_circle.o ABSOLUTE
    ..\U8g2\csrc\u8g2_cleardisplay.c         0x00000000   Number         0  u8g2_cleardisplay.o ABSOLUTE
    ..\U8g2\csrc\u8g2_d_memory.c             0x00000000   Number         0  u8g2_d_memory.o ABSOLUTE
    ..\U8g2\csrc\u8g2_d_setup.c              0x00000000   Number         0  u8g2_d_setup.o ABSOLUTE
    ..\U8g2\csrc\u8g2_font.c                 0x00000000   Number         0  u8g2_font.o ABSOLUTE
    ..\U8g2\csrc\u8g2_fonts.c                0x00000000   Number         0  u8g2_fonts.o ABSOLUTE
    ..\U8g2\csrc\u8g2_hvline.c               0x00000000   Number         0  u8g2_hvline.o ABSOLUTE
    ..\U8g2\csrc\u8g2_input_value.c          0x00000000   Number         0  u8g2_input_value.o ABSOLUTE
    ..\U8g2\csrc\u8g2_intersection.c         0x00000000   Number         0  u8g2_intersection.o ABSOLUTE
    ..\U8g2\csrc\u8g2_kerning.c              0x00000000   Number         0  u8g2_kerning.o ABSOLUTE
    ..\U8g2\csrc\u8g2_line.c                 0x00000000   Number         0  u8g2_line.o ABSOLUTE
    ..\U8g2\csrc\u8g2_ll_hvline.c            0x00000000   Number         0  u8g2_ll_hvline.o ABSOLUTE
    ..\U8g2\csrc\u8g2_message.c              0x00000000   Number         0  u8g2_message.o ABSOLUTE
    ..\U8g2\csrc\u8g2_polygon.c              0x00000000   Number         0  u8g2_polygon.o ABSOLUTE
    ..\U8g2\csrc\u8g2_selection_list.c       0x00000000   Number         0  u8g2_selection_list.o ABSOLUTE
    ..\U8g2\csrc\u8g2_setup.c                0x00000000   Number         0  u8g2_setup.o ABSOLUTE
    ..\U8g2\csrc\u8log.c                     0x00000000   Number         0  u8log.o ABSOLUTE
    ..\U8g2\csrc\u8log_u8g2.c                0x00000000   Number         0  u8log_u8g2.o ABSOLUTE
    ..\U8g2\csrc\u8log_u8x8.c                0x00000000   Number         0  u8log_u8x8.o ABSOLUTE
    ..\U8g2\csrc\u8x8_8x8.c                  0x00000000   Number         0  u8x8_8x8.o ABSOLUTE
    ..\U8g2\csrc\u8x8_byte.c                 0x00000000   Number         0  u8x8_byte.o ABSOLUTE
    ..\U8g2\csrc\u8x8_cad.c                  0x00000000   Number         0  u8x8_cad.o ABSOLUTE
    ..\U8g2\csrc\u8x8_capture.c              0x00000000   Number         0  u8x8_capture.o ABSOLUTE
    ..\U8g2\csrc\u8x8_d_a2printer.c          0x00000000   Number         0  u8x8_d_a2printer.o ABSOLUTE
    ..\U8g2\csrc\u8x8_d_hd44102.c            0x00000000   Number         0  u8x8_d_hd44102.o ABSOLUTE
    ..\U8g2\csrc\u8x8_d_il3820_296x128.c     0x00000000   Number         0  u8x8_d_il3820_296x128.o ABSOLUTE
    ..\U8g2\csrc\u8x8_d_ist3020.c            0x00000000   Number         0  u8x8_d_ist3020.o ABSOLUTE
    ..\U8g2\csrc\u8x8_d_ist7920.c            0x00000000   Number         0  u8x8_d_ist7920.o ABSOLUTE
    ..\U8g2\csrc\u8x8_d_ks0108.c             0x00000000   Number         0  u8x8_d_ks0108.o ABSOLUTE
    ..\U8g2\csrc\u8x8_d_lc7981.c             0x00000000   Number         0  u8x8_d_lc7981.o ABSOLUTE
    ..\U8g2\csrc\u8x8_d_ld7032_60x32.c       0x00000000   Number         0  u8x8_d_ld7032_60x32.o ABSOLUTE
    ..\U8g2\csrc\u8x8_d_ls013b7dh03.c        0x00000000   Number         0  u8x8_d_ls013b7dh03.o ABSOLUTE
    ..\U8g2\csrc\u8x8_d_max7219.c            0x00000000   Number         0  u8x8_d_max7219.o ABSOLUTE
    ..\U8g2\csrc\u8x8_d_pcd8544_84x48.c      0x00000000   Number         0  u8x8_d_pcd8544_84x48.o ABSOLUTE
    ..\U8g2\csrc\u8x8_d_pcf8812.c            0x00000000   Number         0  u8x8_d_pcf8812.o ABSOLUTE
    ..\U8g2\csrc\u8x8_d_pcf8814_hx1230.c     0x00000000   Number         0  u8x8_d_pcf8814_hx1230.o ABSOLUTE
    ..\U8g2\csrc\u8x8_d_s1d15721.c           0x00000000   Number         0  u8x8_d_s1d15721.o ABSOLUTE
    ..\U8g2\csrc\u8x8_d_s1d15e06.c           0x00000000   Number         0  u8x8_d_s1d15e06.o ABSOLUTE
    ..\U8g2\csrc\u8x8_d_sbn1661.c            0x00000000   Number         0  u8x8_d_sbn1661.o ABSOLUTE
    ..\U8g2\csrc\u8x8_d_sed1330.c            0x00000000   Number         0  u8x8_d_sed1330.o ABSOLUTE
    ..\U8g2\csrc\u8x8_d_sh1106_64x32.c       0x00000000   Number         0  u8x8_d_sh1106_64x32.o ABSOLUTE
    ..\U8g2\csrc\u8x8_d_sh1106_72x40.c       0x00000000   Number         0  u8x8_d_sh1106_72x40.o ABSOLUTE
    ..\U8g2\csrc\u8x8_d_sh1107.c             0x00000000   Number         0  u8x8_d_sh1107.o ABSOLUTE
    ..\U8g2\csrc\u8x8_d_sh1108.c             0x00000000   Number         0  u8x8_d_sh1108.o ABSOLUTE
    ..\U8g2\csrc\u8x8_d_sh1122.c             0x00000000   Number         0  u8x8_d_sh1122.o ABSOLUTE
    ..\U8g2\csrc\u8x8_d_ssd1305.c            0x00000000   Number         0  u8x8_d_ssd1305.o ABSOLUTE
    ..\U8g2\csrc\u8x8_d_ssd1306_128x32.c     0x00000000   Number         0  u8x8_d_ssd1306_128x32.o ABSOLUTE
    ..\U8g2\csrc\u8x8_d_ssd1306_128x64_noname.c 0x00000000   Number         0  u8x8_d_ssd1306_128x64_noname.o ABSOLUTE
    ..\U8g2\csrc\u8x8_d_ssd1306_2040x16.c    0x00000000   Number         0  u8x8_d_ssd1306_2040x16.o ABSOLUTE
    ..\U8g2\csrc\u8x8_d_ssd1306_48x64.c      0x00000000   Number         0  u8x8_d_ssd1306_48x64.o ABSOLUTE
    ..\U8g2\csrc\u8x8_d_ssd1306_64x32.c      0x00000000   Number         0  u8x8_d_ssd1306_64x32.o ABSOLUTE
    ..\U8g2\csrc\u8x8_d_ssd1306_64x48.c      0x00000000   Number         0  u8x8_d_ssd1306_64x48.o ABSOLUTE
    ..\U8g2\csrc\u8x8_d_ssd1306_72x40.c      0x00000000   Number         0  u8x8_d_ssd1306_72x40.o ABSOLUTE
    ..\U8g2\csrc\u8x8_d_ssd1306_96x16.c      0x00000000   Number         0  u8x8_d_ssd1306_96x16.o ABSOLUTE
    ..\U8g2\csrc\u8x8_d_ssd1309.c            0x00000000   Number         0  u8x8_d_ssd1309.o ABSOLUTE
    ..\U8g2\csrc\u8x8_d_ssd1316.c            0x00000000   Number         0  u8x8_d_ssd1316.o ABSOLUTE
    ..\U8g2\csrc\u8x8_d_ssd1317.c            0x00000000   Number         0  u8x8_d_ssd1317.o ABSOLUTE
    ..\U8g2\csrc\u8x8_d_ssd1318.c            0x00000000   Number         0  u8x8_d_ssd1318.o ABSOLUTE
    ..\U8g2\csrc\u8x8_d_ssd1320.c            0x00000000   Number         0  u8x8_d_ssd1320.o ABSOLUTE
    ..\U8g2\csrc\u8x8_d_ssd1322.c            0x00000000   Number         0  u8x8_d_ssd1322.o ABSOLUTE
    ..\U8g2\csrc\u8x8_d_ssd1325.c            0x00000000   Number         0  u8x8_d_ssd1325.o ABSOLUTE
    ..\U8g2\csrc\u8x8_d_ssd1326.c            0x00000000   Number         0  u8x8_d_ssd1326.o ABSOLUTE
    ..\U8g2\csrc\u8x8_d_ssd1327.c            0x00000000   Number         0  u8x8_d_ssd1327.o ABSOLUTE
    ..\U8g2\csrc\u8x8_d_ssd1329.c            0x00000000   Number         0  u8x8_d_ssd1329.o ABSOLUTE
    ..\U8g2\csrc\u8x8_d_ssd1606_172x72.c     0x00000000   Number         0  u8x8_d_ssd1606_172x72.o ABSOLUTE
    ..\U8g2\csrc\u8x8_d_ssd1607_200x200.c    0x00000000   Number         0  u8x8_d_ssd1607_200x200.o ABSOLUTE
    ..\U8g2\csrc\u8x8_d_st7511.c             0x00000000   Number         0  u8x8_d_st7511.o ABSOLUTE
    ..\U8g2\csrc\u8x8_d_st75256.c            0x00000000   Number         0  u8x8_d_st75256.o ABSOLUTE
    ..\U8g2\csrc\u8x8_d_st7528.c             0x00000000   Number         0  u8x8_d_st7528.o ABSOLUTE
    ..\U8g2\csrc\u8x8_d_st75320.c            0x00000000   Number         0  u8x8_d_st75320.o ABSOLUTE
    ..\U8g2\csrc\u8x8_d_st7565.c             0x00000000   Number         0  u8x8_d_st7565.o ABSOLUTE
    ..\U8g2\csrc\u8x8_d_st7567.c             0x00000000   Number         0  u8x8_d_st7567.o ABSOLUTE
    ..\U8g2\csrc\u8x8_d_st7571.c             0x00000000   Number         0  u8x8_d_st7571.o ABSOLUTE
    ..\U8g2\csrc\u8x8_d_st7586s_erc240160.c  0x00000000   Number         0  u8x8_d_st7586s_erc240160.o ABSOLUTE
    ..\U8g2\csrc\u8x8_d_st7586s_s028hn118a.c 0x00000000   Number         0  u8x8_d_st7586s_s028hn118a.o ABSOLUTE
    ..\U8g2\csrc\u8x8_d_st7586s_ymc240160.c  0x00000000   Number         0  u8x8_d_st7586s_ymc240160.o ABSOLUTE
    ..\U8g2\csrc\u8x8_d_st7588.c             0x00000000   Number         0  u8x8_d_st7588.o ABSOLUTE
    ..\U8g2\csrc\u8x8_d_st7920.c             0x00000000   Number         0  u8x8_d_st7920.o ABSOLUTE
    ..\U8g2\csrc\u8x8_d_stdio.c              0x00000000   Number         0  u8x8_d_stdio.o ABSOLUTE
    ..\U8g2\csrc\u8x8_d_t6963.c              0x00000000   Number         0  u8x8_d_t6963.o ABSOLUTE
    ..\U8g2\csrc\u8x8_d_uc1601.c             0x00000000   Number         0  u8x8_d_uc1601.o ABSOLUTE
    ..\U8g2\csrc\u8x8_d_uc1604.c             0x00000000   Number         0  u8x8_d_uc1604.o ABSOLUTE
    ..\U8g2\csrc\u8x8_d_uc1608.c             0x00000000   Number         0  u8x8_d_uc1608.o ABSOLUTE
    ..\U8g2\csrc\u8x8_d_uc1610.c             0x00000000   Number         0  u8x8_d_uc1610.o ABSOLUTE
    ..\U8g2\csrc\u8x8_d_uc1611.c             0x00000000   Number         0  u8x8_d_uc1611.o ABSOLUTE
    ..\U8g2\csrc\u8x8_d_uc1617.c             0x00000000   Number         0  u8x8_d_uc1617.o ABSOLUTE
    ..\U8g2\csrc\u8x8_d_uc1638.c             0x00000000   Number         0  u8x8_d_uc1638.o ABSOLUTE
    ..\U8g2\csrc\u8x8_d_uc1701_dogs102.c     0x00000000   Number         0  u8x8_d_uc1701_dogs102.o ABSOLUTE
    ..\U8g2\csrc\u8x8_d_uc1701_mini12864.c   0x00000000   Number         0  u8x8_d_uc1701_mini12864.o ABSOLUTE
    ..\U8g2\csrc\u8x8_debounce.c             0x00000000   Number         0  u8x8_debounce.o ABSOLUTE
    ..\U8g2\csrc\u8x8_display.c              0x00000000   Number         0  u8x8_display.o ABSOLUTE
    ..\U8g2\csrc\u8x8_fonts.c                0x00000000   Number         0  u8x8_fonts.o ABSOLUTE
    ..\U8g2\csrc\u8x8_gpio.c                 0x00000000   Number         0  u8x8_gpio.o ABSOLUTE
    ..\U8g2\csrc\u8x8_input_value.c          0x00000000   Number         0  u8x8_input_value.o ABSOLUTE
    ..\U8g2\csrc\u8x8_message.c              0x00000000   Number         0  u8x8_message.o ABSOLUTE
    ..\U8g2\csrc\u8x8_selection_list.c       0x00000000   Number         0  u8x8_selection_list.o ABSOLUTE
    ..\U8g2\csrc\u8x8_setup.c                0x00000000   Number         0  u8x8_setup.o ABSOLUTE
    ..\U8g2\csrc\u8x8_string.c               0x00000000   Number         0  u8x8_string.o ABSOLUTE
    ..\U8g2\csrc\u8x8_u16toa.c               0x00000000   Number         0  u8x8_u16toa.o ABSOLUTE
    ..\U8g2\csrc\u8x8_u8toa.c                0x00000000   Number         0  u8x8_u8toa.o ABSOLUTE
    ..\\HARDWARE\\oled_driver.c              0x00000000   Number         0  oled_driver.o ABSOLUTE
    cdrcmple.s                               0x00000000   Number         0  cdrcmple.o ABSOLUTE
    dc.s                                     0x00000000   Number         0  dc.o ABSOLUTE
    handlers.s                               0x00000000   Number         0  handlers.o ABSOLUTE
    init.s                                   0x00000000   Number         0  init.o ABSOLUTE
    startup_stm32f103xb.s                    0x00000000   Number         0  startup_stm32f103xb.o ABSOLUTE
    RESET                                    0x08000000   Section      236  startup_stm32f103xb.o(RESET)
    .ARM.Collect$$$$00000000                 0x080000ec   Section        0  entry.o(.ARM.Collect$$$$00000000)
    .ARM.Collect$$$$00000001                 0x080000ec   Section        4  entry2.o(.ARM.Collect$$$$00000001)
    .ARM.Collect$$$$00000004                 0x080000f0   Section        4  entry5.o(.ARM.Collect$$$$00000004)
    .ARM.Collect$$$$00000008                 0x080000f4   Section        0  entry7b.o(.ARM.Collect$$$$00000008)
    .ARM.Collect$$$$0000000A                 0x080000f4   Section        0  entry8b.o(.ARM.Collect$$$$0000000A)
    .ARM.Collect$$$$0000000B                 0x080000f4   Section        8  entry9a.o(.ARM.Collect$$$$0000000B)
    .ARM.Collect$$$$0000000E                 0x080000fc   Section        4  entry12b.o(.ARM.Collect$$$$0000000E)
    .ARM.Collect$$$$0000000F                 0x08000100   Section        0  entry10a.o(.ARM.Collect$$$$0000000F)
    .ARM.Collect$$$$00000011                 0x08000100   Section        0  entry11a.o(.ARM.Collect$$$$00000011)
    .ARM.Collect$$$$00002712                 0x08000100   Section        4  entry2.o(.ARM.Collect$$$$00002712)
    __lit__00000000                          0x08000100   Data           4  entry2.o(.ARM.Collect$$$$00002712)
    .text                                    0x08000104   Section       36  startup_stm32f103xb.o(.text)
    .text                                    0x08000128   Section        0  memseta.o(.text)
    .text                                    0x0800014c   Section       36  init.o(.text)
    i.BusFault_Handler                       0x08000170   Section        0  stm32f1xx_it.o(i.BusFault_Handler)
    i.DMA1_Channel3_IRQHandler               0x08000174   Section        0  stm32f1xx_it.o(i.DMA1_Channel3_IRQHandler)
    i.DMA_SetConfig                          0x08000180   Section        0  stm32f1xx_hal_dma.o(i.DMA_SetConfig)
    DMA_SetConfig                            0x08000181   Thumb Code    42  stm32f1xx_hal_dma.o(i.DMA_SetConfig)
    i.DebugMon_Handler                       0x080001aa   Section        0  stm32f1xx_it.o(i.DebugMon_Handler)
    i.Error_Handler                          0x080001ac   Section        0  main.o(i.Error_Handler)
    i.HAL_DMA_IRQHandler                     0x080001b0   Section        0  stm32f1xx_hal_dma.o(i.HAL_DMA_IRQHandler)
    i.HAL_DMA_Init                           0x08000304   Section        0  stm32f1xx_hal_dma.o(i.HAL_DMA_Init)
    i.HAL_DMA_Start_IT                       0x08000360   Section        0  stm32f1xx_hal_dma.o(i.HAL_DMA_Start_IT)
    i.HAL_Delay                              0x080003d0   Section        0  stm32f1xx_hal.o(i.HAL_Delay)
    i.HAL_GPIO_Init                          0x080003f4   Section        0  stm32f1xx_hal_gpio.o(i.HAL_GPIO_Init)
    i.HAL_GPIO_WritePin                      0x080005d4   Section        0  stm32f1xx_hal_gpio.o(i.HAL_GPIO_WritePin)
    i.HAL_GetTick                            0x080005e0   Section        0  stm32f1xx_hal.o(i.HAL_GetTick)
    i.HAL_IncTick                            0x080005ec   Section        0  stm32f1xx_hal.o(i.HAL_IncTick)
    i.HAL_Init                               0x080005fc   Section        0  stm32f1xx_hal.o(i.HAL_Init)
    i.HAL_InitTick                           0x08000620   Section        0  stm32f1xx_hal.o(i.HAL_InitTick)
    i.HAL_MspInit                            0x08000660   Section        0  stm32f1xx_hal_msp.o(i.HAL_MspInit)
    i.HAL_NVIC_EnableIRQ                     0x0800069c   Section        0  stm32f1xx_hal_cortex.o(i.HAL_NVIC_EnableIRQ)
    i.HAL_NVIC_SetPriority                   0x080006b8   Section        0  stm32f1xx_hal_cortex.o(i.HAL_NVIC_SetPriority)
    i.HAL_NVIC_SetPriorityGrouping           0x080006f8   Section        0  stm32f1xx_hal_cortex.o(i.HAL_NVIC_SetPriorityGrouping)
    i.HAL_RCC_ClockConfig                    0x0800071c   Section        0  stm32f1xx_hal_rcc.o(i.HAL_RCC_ClockConfig)
    i.HAL_RCC_GetSysClockFreq                0x08000848   Section        0  stm32f1xx_hal_rcc.o(i.HAL_RCC_GetSysClockFreq)
    i.HAL_RCC_OscConfig                      0x080008b4   Section        0  stm32f1xx_hal_rcc.o(i.HAL_RCC_OscConfig)
    i.HAL_SPI_ErrorCallback                  0x08000bd4   Section        0  stm32f1xx_hal_spi.o(i.HAL_SPI_ErrorCallback)
    i.HAL_SPI_Init                           0x08000bd6   Section        0  stm32f1xx_hal_spi.o(i.HAL_SPI_Init)
    i.HAL_SPI_MspInit                        0x08000c88   Section        0  spi.o(i.HAL_SPI_MspInit)
    i.HAL_SPI_Transmit_DMA                   0x08000d28   Section        0  stm32f1xx_hal_spi.o(i.HAL_SPI_Transmit_DMA)
    i.HAL_SPI_TxCpltCallback                 0x08000e00   Section        0  stm32f1xx_hal_spi.o(i.HAL_SPI_TxCpltCallback)
    i.HAL_SPI_TxHalfCpltCallback             0x08000e02   Section        0  stm32f1xx_hal_spi.o(i.HAL_SPI_TxHalfCpltCallback)
    i.HAL_SYSTICK_Config                     0x08000e04   Section        0  stm32f1xx_hal_cortex.o(i.HAL_SYSTICK_Config)
    i.HardFault_Handler                      0x08000e2c   Section        0  stm32f1xx_it.o(i.HardFault_Handler)
    i.MX_DMA_Init                            0x08000e30   Section        0  dma.o(i.MX_DMA_Init)
    i.MX_GPIO_Init                           0x08000e5c   Section        0  gpio.o(i.MX_GPIO_Init)
    i.MX_SPI1_Init                           0x08000ef4   Section        0  spi.o(i.MX_SPI1_Init)
    i.MemManage_Handler                      0x08000f3c   Section        0  stm32f1xx_it.o(i.MemManage_Handler)
    i.NMI_Handler                            0x08000f3e   Section        0  stm32f1xx_it.o(i.NMI_Handler)
    i.PendSV_Handler                         0x08000f40   Section        0  stm32f1xx_it.o(i.PendSV_Handler)
    i.SPI_DMAError                           0x08000f42   Section        0  stm32f1xx_hal_spi.o(i.SPI_DMAError)
    SPI_DMAError                             0x08000f43   Thumb Code    34  stm32f1xx_hal_spi.o(i.SPI_DMAError)
    i.SPI_DMAHalfTransmitCplt                0x08000f64   Section        0  stm32f1xx_hal_spi.o(i.SPI_DMAHalfTransmitCplt)
    SPI_DMAHalfTransmitCplt                  0x08000f65   Thumb Code    10  stm32f1xx_hal_spi.o(i.SPI_DMAHalfTransmitCplt)
    i.SPI_DMATransmitCplt                    0x08000f6e   Section        0  stm32f1xx_hal_spi.o(i.SPI_DMATransmitCplt)
    SPI_DMATransmitCplt                      0x08000f6f   Thumb Code   100  stm32f1xx_hal_spi.o(i.SPI_DMATransmitCplt)
    i.SPI_EndRxTxTransaction                 0x08000fd2   Section        0  stm32f1xx_hal_spi.o(i.SPI_EndRxTxTransaction)
    SPI_EndRxTxTransaction                   0x08000fd3   Thumb Code    32  stm32f1xx_hal_spi.o(i.SPI_EndRxTxTransaction)
    i.SPI_WaitFlagStateUntilTimeout          0x08000ff4   Section        0  stm32f1xx_hal_spi.o(i.SPI_WaitFlagStateUntilTimeout)
    SPI_WaitFlagStateUntilTimeout            0x08000ff5   Thumb Code   180  stm32f1xx_hal_spi.o(i.SPI_WaitFlagStateUntilTimeout)
    i.SVC_Handler                            0x080010ac   Section        0  stm32f1xx_it.o(i.SVC_Handler)
    i.SysTick_Handler                        0x080010ae   Section        0  stm32f1xx_it.o(i.SysTick_Handler)
    i.SystemClock_Config                     0x080010b2   Section        0  main.o(i.SystemClock_Config)
    i.SystemInit                             0x08001110   Section        0  system_stm32f1xx.o(i.SystemInit)
    i.UsageFault_Handler                     0x08001112   Section        0  stm32f1xx_it.o(i.UsageFault_Handler)
    i.__NVIC_SetPriority                     0x08001114   Section        0  stm32f1xx_hal_cortex.o(i.__NVIC_SetPriority)
    __NVIC_SetPriority                       0x08001115   Thumb Code    32  stm32f1xx_hal_cortex.o(i.__NVIC_SetPriority)
    i.__scatterload_copy                     0x08001134   Section       14  handlers.o(i.__scatterload_copy)
    i.__scatterload_null                     0x08001142   Section        2  handlers.o(i.__scatterload_null)
    i.__scatterload_zeroinit                 0x08001144   Section       14  handlers.o(i.__scatterload_zeroinit)
    i.draw                                   0x08001154   Section        0  oled_driver.o(i.draw)
    i.main                                   0x08001240   Section        0  main.o(i.main)
    i.u8g2Init                               0x08001284   Section        0  oled_driver.o(i.u8g2Init)
    i.u8g2_ClearBuffer                       0x080012b0   Section        0  u8g2_buffer.o(i.u8g2_ClearBuffer)
    i.u8g2_DrawGlyph                         0x080012c2   Section        0  u8g2_font.o(i.u8g2_DrawGlyph)
    i.u8g2_DrawHLine                         0x08001332   Section        0  u8g2_hvline.o(i.u8g2_DrawHLine)
    i.u8g2_DrawHVLine                        0x08001340   Section        0  u8g2_hvline.o(i.u8g2_DrawHVLine)
    i.u8g2_DrawStr                           0x080013ec   Section        0  u8g2_font.o(i.u8g2_DrawStr)
    i.u8g2_DrawVLine                         0x080013fc   Section        0  u8g2_hvline.o(i.u8g2_DrawVLine)
    i.u8g2_FirstPage                         0x08001408   Section        0  u8g2_buffer.o(i.u8g2_FirstPage)
    i.u8g2_IsIntersection                    0x08001424   Section        0  u8g2_intersection.o(i.u8g2_IsIntersection)
    i.u8g2_NextPage                          0x08001454   Section        0  u8g2_buffer.o(i.u8g2_NextPage)
    i.u8g2_SetBufferCurrTileRow              0x08001492   Section        0  u8g2_buffer.o(i.u8g2_SetBufferCurrTileRow)
    i.u8g2_SetFont                           0x080014ae   Section        0  u8g2_font.o(i.u8g2_SetFont)
    i.u8g2_SetFontDirection                  0x080014ce   Section        0  u8g2_font.o(i.u8g2_SetFontDirection)
    i.u8g2_SetFontMode                       0x080014d4   Section        0  u8g2_font.o(i.u8g2_SetFontMode)
    i.u8g2_SetFontPosBaseline                0x080014dc   Section        0  u8g2_font.o(i.u8g2_SetFontPosBaseline)
    i.u8g2_SetMaxClipWindow                  0x080014e8   Section        0  u8g2_setup.o(i.u8g2_SetMaxClipWindow)
    i.u8g2_SetupBuffer                       0x08001504   Section        0  u8g2_setup.o(i.u8g2_SetupBuffer)
    i.u8g2_Setup_ssd1306_128x64_noname_f     0x08001548   Section        0  u8g2_d_setup.o(i.u8g2_Setup_ssd1306_128x64_noname_f)
    i.u8g2_UpdateRefHeight                   0x08001580   Section        0  u8g2_font.o(i.u8g2_UpdateRefHeight)
    i.u8g2_add_vector_x                      0x080015d2   Section        0  u8g2_font.o(i.u8g2_add_vector_x)
    i.u8g2_add_vector_y                      0x080015ee   Section        0  u8g2_font.o(i.u8g2_add_vector_y)
    i.u8g2_apply_clip_window                 0x0800160a   Section        0  u8g2_setup.o(i.u8g2_apply_clip_window)
    u8g2_apply_clip_window                   0x0800160b   Thumb Code   110  u8g2_setup.o(i.u8g2_apply_clip_window)
    i.u8g2_clip_intersection2                0x08001678   Section        0  u8g2_hvline.o(i.u8g2_clip_intersection2)
    u8g2_clip_intersection2                  0x08001679   Thumb Code    60  u8g2_hvline.o(i.u8g2_clip_intersection2)
    i.u8g2_draw_hv_line_2dir                 0x080016b4   Section        0  u8g2_hvline.o(i.u8g2_draw_hv_line_2dir)
    i.u8g2_draw_l90_r0                       0x080016c6   Section        0  u8g2_setup.o(i.u8g2_draw_l90_r0)
    i.u8g2_draw_string                       0x080016d2   Section        0  u8g2_font.o(i.u8g2_draw_string)
    u8g2_draw_string                         0x080016d3   Thumb Code   118  u8g2_font.o(i.u8g2_draw_string)
    i.u8g2_font_calc_vref_font               0x08001748   Section        0  u8g2_font.o(i.u8g2_font_calc_vref_font)
    i.u8g2_font_decode_get_signed_bits       0x0800174c   Section        0  u8g2_font.o(i.u8g2_font_decode_get_signed_bits)
    i.u8g2_font_decode_get_unsigned_bits     0x08001760   Section        0  u8g2_font.o(i.u8g2_font_decode_get_unsigned_bits)
    i.u8g2_font_decode_glyph                 0x08001794   Section        0  u8g2_font.o(i.u8g2_font_decode_glyph)
    i.u8g2_font_decode_len                   0x080018a8   Section        0  u8g2_font.o(i.u8g2_font_decode_len)
    i.u8g2_font_get_glyph_data               0x08001934   Section        0  u8g2_font.o(i.u8g2_font_get_glyph_data)
    i.u8g2_font_get_word                     0x080019a6   Section        0  u8g2_font.o(i.u8g2_font_get_word)
    u8g2_font_get_word                       0x080019a7   Thumb Code    20  u8g2_font.o(i.u8g2_font_get_word)
    i.u8g2_font_setup_decode                 0x080019ba   Section        0  u8g2_font.o(i.u8g2_font_setup_decode)
    u8g2_font_setup_decode                   0x080019bb   Thumb Code    52  u8g2_font.o(i.u8g2_font_setup_decode)
    i.u8g2_is_intersection_decision_tree     0x080019ee   Section        0  u8g2_intersection.o(i.u8g2_is_intersection_decision_tree)
    i.u8g2_ll_hvline_vertical_top_lsb        0x08001a08   Section        0  u8g2_ll_hvline.o(i.u8g2_ll_hvline_vertical_top_lsb)
    i.u8g2_m_16_8_f                          0x08001a98   Section        0  u8g2_d_memory.o(i.u8g2_m_16_8_f)
    i.u8g2_read_font_info                    0x08001aa4   Section        0  u8g2_font.o(i.u8g2_read_font_info)
    i.u8g2_send_buffer                       0x08001b0e   Section        0  u8g2_buffer.o(i.u8g2_send_buffer)
    u8g2_send_buffer                         0x08001b0f   Thumb Code    78  u8g2_buffer.o(i.u8g2_send_buffer)
    i.u8g2_update_dimension_common           0x08001b5c   Section        0  u8g2_setup.o(i.u8g2_update_dimension_common)
    u8g2_update_dimension_common             0x08001b5d   Thumb Code    70  u8g2_setup.o(i.u8g2_update_dimension_common)
    i.u8g2_update_dimension_r0               0x08001ba2   Section        0  u8g2_setup.o(i.u8g2_update_dimension_r0)
    i.u8g2_update_page_win_r0                0x08001ba6   Section        0  u8g2_setup.o(i.u8g2_update_page_win_r0)
    i.u8x8_DrawTile                          0x08001bc8   Section        0  u8x8_display.o(i.u8x8_DrawTile)
    i.u8x8_InitDisplay                       0x08001be6   Section        0  u8x8_display.o(i.u8x8_InitDisplay)
    i.u8x8_RefreshDisplay                    0x08001bf6   Section        0  u8x8_display.o(i.u8x8_RefreshDisplay)
    i.u8x8_SetPowerSave                      0x08001c06   Section        0  u8x8_display.o(i.u8x8_SetPowerSave)
    i.u8x8_Setup                             0x08001c16   Section        0  u8x8_setup.o(i.u8x8_Setup)
    i.u8x8_SetupDefaults                     0x08001c38   Section        0  u8x8_setup.o(i.u8x8_SetupDefaults)
    i.u8x8_SetupMemory                       0x08001c5c   Section        0  u8x8_display.o(i.u8x8_SetupMemory)
    i.u8x8_ascii_next                        0x08001c6c   Section        0  u8x8_8x8.o(i.u8x8_ascii_next)
    i.u8x8_byte_4wire_hw_spi                 0x08001c7c   Section        0  oled_driver.o(i.u8x8_byte_4wire_hw_spi)
    i.u8x8_byte_SendByte                     0x08001cfc   Section        0  u8x8_byte.o(i.u8x8_byte_SendByte)
    i.u8x8_byte_SetDC                        0x08001d0a   Section        0  u8x8_byte.o(i.u8x8_byte_SetDC)
    i.u8x8_cad_001                           0x08001d1a   Section        0  u8x8_cad.o(i.u8x8_cad_001)
    i.u8x8_cad_EndTransfer                   0x08001d6c   Section        0  u8x8_cad.o(i.u8x8_cad_EndTransfer)
    i.u8x8_cad_SendArg                       0x08001d7c   Section        0  u8x8_cad.o(i.u8x8_cad_SendArg)
    i.u8x8_cad_SendCmd                       0x08001d8c   Section        0  u8x8_cad.o(i.u8x8_cad_SendCmd)
    i.u8x8_cad_SendData                      0x08001d9c   Section        0  u8x8_cad.o(i.u8x8_cad_SendData)
    i.u8x8_cad_SendSequence                  0x08001dac   Section        0  u8x8_cad.o(i.u8x8_cad_SendSequence)
    i.u8x8_cad_StartTransfer                 0x08001e14   Section        0  u8x8_cad.o(i.u8x8_cad_StartTransfer)
    i.u8x8_d_helper_display_init             0x08001e24   Section        0  u8x8_display.o(i.u8x8_d_helper_display_init)
    i.u8x8_d_helper_display_setup_memory     0x08001e84   Section        0  u8x8_display.o(i.u8x8_d_helper_display_setup_memory)
    i.u8x8_d_ssd1306_128x64_noname           0x08001e90   Section        0  u8x8_d_ssd1306_128x64_noname.o(i.u8x8_d_ssd1306_128x64_noname)
    i.u8x8_d_ssd1306_sh1106_generic          0x08001ecc   Section        0  u8x8_d_ssd1306_128x64_noname.o(i.u8x8_d_ssd1306_sh1106_generic)
    u8x8_d_ssd1306_sh1106_generic            0x08001ecd   Thumb Code   196  u8x8_d_ssd1306_128x64_noname.o(i.u8x8_d_ssd1306_sh1106_generic)
    i.u8x8_dummy_cb                          0x08001f94   Section        0  u8x8_setup.o(i.u8x8_dummy_cb)
    i.u8x8_gpio_call                         0x08001f98   Section        0  u8x8_gpio.o(i.u8x8_gpio_call)
    i.u8x8_stm32_gpio_and_delay              0x08001fa4   Section        0  oled_driver.o(i.u8x8_stm32_gpio_and_delay)
    i.u8x8_utf8_init                         0x08001fe0   Section        0  u8x8_8x8.o(i.u8x8_utf8_init)
    .constdata                               0x08001fe8   Section       16  system_stm32f1xx.o(.constdata)
    .constdata                               0x08001ff8   Section      734  u8g2_fonts.o(.constdata)
    .constdata                               0x080022d6   Section     8831  u8g2_fonts.o(.constdata)
    .constdata                               0x08004555   Section      805  u8g2_fonts.o(.constdata)
    .constdata                               0x0800487c   Section       12  u8g2_setup.o(.constdata)
    .constdata                               0x08004888   Section      276  u8x8_d_ssd1306_128x64_noname.o(.constdata)
    u8x8_d_ssd1306_128x64_noname_powersave0_seq 0x08004888   Data           5  u8x8_d_ssd1306_128x64_noname.o(.constdata)
    u8x8_d_ssd1306_128x64_noname_powersave1_seq 0x0800488d   Data           5  u8x8_d_ssd1306_128x64_noname.o(.constdata)
    u8x8_d_ssd1306_128x64_noname_flip0_seq   0x08004892   Data           7  u8x8_d_ssd1306_128x64_noname.o(.constdata)
    u8x8_d_ssd1306_128x64_noname_flip1_seq   0x08004899   Data           7  u8x8_d_ssd1306_128x64_noname.o(.constdata)
    u8x8_d_ssd1306_128x64_noname_init_seq    0x080048a0   Data          53  u8x8_d_ssd1306_128x64_noname.o(.constdata)
    u8x8_d_ssd1306_128x64_vcomh0_init_seq    0x080048d5   Data          53  u8x8_d_ssd1306_128x64_noname.o(.constdata)
    u8x8_d_ssd1306_128x64_alt0_init_seq      0x0800490a   Data          53  u8x8_d_ssd1306_128x64_noname.o(.constdata)
    u8x8_d_sh1106_128x64_winstar_init_seq    0x0800493f   Data          45  u8x8_d_ssd1306_128x64_noname.o(.constdata)
    u8x8_ssd1306_128x64_noname_display_info  0x0800496c   Data          24  u8x8_d_ssd1306_128x64_noname.o(.constdata)
    u8x8_sh1106_128x64_noname_display_info   0x08004984   Data          24  u8x8_d_ssd1306_128x64_noname.o(.constdata)
    .data                                    0x20000000   Section       12  stm32f1xx_hal.o(.data)
    .data                                    0x2000000c   Section        4  system_stm32f1xx.o(.data)
    .bss                                     0x20000010   Section      156  spi.o(.bss)
    .bss                                     0x200000ac   Section     1408  u8g2_d_memory.o(.bss)
    buf                                      0x200000ac   Data         128  u8g2_d_memory.o(.bss)
    buf                                      0x2000012c   Data         256  u8g2_d_memory.o(.bss)
    buf                                      0x2000022c   Data        1024  u8g2_d_memory.o(.bss)
    STACK                                    0x20000630   Section     1024  startup_stm32f103xb.o(STACK)

    Global Symbols

    Symbol Name                              Value     Ov Type        Size  Object(Section)

    BuildAttributes$$THM_ISAv4$P$D$K$B$S$PE$A:L22UL41UL21$X:L11$S22US41US21$IEEE1$IW$USESV6$~STKCKD$USESV7$~SHL$OSPACE$ROPI$EBA8$MICROLIB$REQ8$PRES8$EABIv2 0x00000000   Number         0  anon$$obj.o ABSOLUTE
    __ARM_use_no_argv                        0x00000000   Number         0  main.o ABSOLUTE
    __arm_fini_                               - Undefined Weak Reference
    __cpp_initialize__aeabi_                  - Undefined Weak Reference
    __cxa_finalize                            - Undefined Weak Reference
    __decompress                              - Undefined Weak Reference
    _clock_init                               - Undefined Weak Reference
    _microlib_exit                            - Undefined Weak Reference
    __Vectors_Size                           0x000000ec   Number         0  startup_stm32f103xb.o ABSOLUTE
    __Vectors                                0x08000000   Data           4  startup_stm32f103xb.o(RESET)
    __Vectors_End                            0x080000ec   Data           0  startup_stm32f103xb.o(RESET)
    __main                                   0x080000ed   Thumb Code     0  entry.o(.ARM.Collect$$$$00000000)
    _main_stk                                0x080000ed   Thumb Code     0  entry2.o(.ARM.Collect$$$$00000001)
    _main_scatterload                        0x080000f1   Thumb Code     0  entry5.o(.ARM.Collect$$$$00000004)
    __main_after_scatterload                 0x080000f5   Thumb Code     0  entry5.o(.ARM.Collect$$$$00000004)
    _main_clock                              0x080000f5   Thumb Code     0  entry7b.o(.ARM.Collect$$$$00000008)
    _main_cpp_init                           0x080000f5   Thumb Code     0  entry8b.o(.ARM.Collect$$$$0000000A)
    _main_init                               0x080000f5   Thumb Code     0  entry9a.o(.ARM.Collect$$$$0000000B)
    __rt_lib_shutdown_fini                   0x080000fd   Thumb Code     0  entry12b.o(.ARM.Collect$$$$0000000E)
    __rt_final_cpp                           0x08000101   Thumb Code     0  entry10a.o(.ARM.Collect$$$$0000000F)
    __rt_final_exit                          0x08000101   Thumb Code     0  entry11a.o(.ARM.Collect$$$$00000011)
    Reset_Handler                            0x08000105   Thumb Code     8  startup_stm32f103xb.o(.text)
    ADC1_2_IRQHandler                        0x0800011f   Thumb Code     0  startup_stm32f103xb.o(.text)
    CAN1_RX1_IRQHandler                      0x0800011f   Thumb Code     0  startup_stm32f103xb.o(.text)
    CAN1_SCE_IRQHandler                      0x0800011f   Thumb Code     0  startup_stm32f103xb.o(.text)
    DMA1_Channel1_IRQHandler                 0x0800011f   Thumb Code     0  startup_stm32f103xb.o(.text)
    DMA1_Channel2_IRQHandler                 0x0800011f   Thumb Code     0  startup_stm32f103xb.o(.text)
    DMA1_Channel4_IRQHandler                 0x0800011f   Thumb Code     0  startup_stm32f103xb.o(.text)
    DMA1_Channel5_IRQHandler                 0x0800011f   Thumb Code     0  startup_stm32f103xb.o(.text)
    DMA1_Channel6_IRQHandler                 0x0800011f   Thumb Code     0  startup_stm32f103xb.o(.text)
    DMA1_Channel7_IRQHandler                 0x0800011f   Thumb Code     0  startup_stm32f103xb.o(.text)
    EXTI0_IRQHandler                         0x0800011f   Thumb Code     0  startup_stm32f103xb.o(.text)
    EXTI15_10_IRQHandler                     0x0800011f   Thumb Code     0  startup_stm32f103xb.o(.text)
    EXTI1_IRQHandler                         0x0800011f   Thumb Code     0  startup_stm32f103xb.o(.text)
    EXTI2_IRQHandler                         0x0800011f   Thumb Code     0  startup_stm32f103xb.o(.text)
    EXTI3_IRQHandler                         0x0800011f   Thumb Code     0  startup_stm32f103xb.o(.text)
    EXTI4_IRQHandler                         0x0800011f   Thumb Code     0  startup_stm32f103xb.o(.text)
    EXTI9_5_IRQHandler                       0x0800011f   Thumb Code     0  startup_stm32f103xb.o(.text)
    FLASH_IRQHandler                         0x0800011f   Thumb Code     0  startup_stm32f103xb.o(.text)
    I2C1_ER_IRQHandler                       0x0800011f   Thumb Code     0  startup_stm32f103xb.o(.text)
    I2C1_EV_IRQHandler                       0x0800011f   Thumb Code     0  startup_stm32f103xb.o(.text)
    I2C2_ER_IRQHandler                       0x0800011f   Thumb Code     0  startup_stm32f103xb.o(.text)
    I2C2_EV_IRQHandler                       0x0800011f   Thumb Code     0  startup_stm32f103xb.o(.text)
    PVD_IRQHandler                           0x0800011f   Thumb Code     0  startup_stm32f103xb.o(.text)
    RCC_IRQHandler                           0x0800011f   Thumb Code     0  startup_stm32f103xb.o(.text)
    RTC_Alarm_IRQHandler                     0x0800011f   Thumb Code     0  startup_stm32f103xb.o(.text)
    RTC_IRQHandler                           0x0800011f   Thumb Code     0  startup_stm32f103xb.o(.text)
    SPI1_IRQHandler                          0x0800011f   Thumb Code     0  startup_stm32f103xb.o(.text)
    SPI2_IRQHandler                          0x0800011f   Thumb Code     0  startup_stm32f103xb.o(.text)
    TAMPER_IRQHandler                        0x0800011f   Thumb Code     0  startup_stm32f103xb.o(.text)
    TIM1_BRK_IRQHandler                      0x0800011f   Thumb Code     0  startup_stm32f103xb.o(.text)
    TIM1_CC_IRQHandler                       0x0800011f   Thumb Code     0  startup_stm32f103xb.o(.text)
    TIM1_TRG_COM_IRQHandler                  0x0800011f   Thumb Code     0  startup_stm32f103xb.o(.text)
    TIM1_UP_IRQHandler                       0x0800011f   Thumb Code     0  startup_stm32f103xb.o(.text)
    TIM2_IRQHandler                          0x0800011f   Thumb Code     0  startup_stm32f103xb.o(.text)
    TIM3_IRQHandler                          0x0800011f   Thumb Code     0  startup_stm32f103xb.o(.text)
    TIM4_IRQHandler                          0x0800011f   Thumb Code     0  startup_stm32f103xb.o(.text)
    USART1_IRQHandler                        0x0800011f   Thumb Code     0  startup_stm32f103xb.o(.text)
    USART2_IRQHandler                        0x0800011f   Thumb Code     0  startup_stm32f103xb.o(.text)
    USART3_IRQHandler                        0x0800011f   Thumb Code     0  startup_stm32f103xb.o(.text)
    USBWakeUp_IRQHandler                     0x0800011f   Thumb Code     0  startup_stm32f103xb.o(.text)
    USB_HP_CAN1_TX_IRQHandler                0x0800011f   Thumb Code     0  startup_stm32f103xb.o(.text)
    USB_LP_CAN1_RX0_IRQHandler               0x0800011f   Thumb Code     0  startup_stm32f103xb.o(.text)
    WWDG_IRQHandler                          0x0800011f   Thumb Code     0  startup_stm32f103xb.o(.text)
    __aeabi_memset                           0x08000129   Thumb Code    14  memseta.o(.text)
    __aeabi_memset4                          0x08000129   Thumb Code     0  memseta.o(.text)
    __aeabi_memset8                          0x08000129   Thumb Code     0  memseta.o(.text)
    __aeabi_memclr                           0x08000137   Thumb Code     4  memseta.o(.text)
    __aeabi_memclr4                          0x08000137   Thumb Code     0  memseta.o(.text)
    __aeabi_memclr8                          0x08000137   Thumb Code     0  memseta.o(.text)
    _memset$wrapper                          0x0800013b   Thumb Code    18  memseta.o(.text)
    __scatterload                            0x0800014d   Thumb Code    28  init.o(.text)
    __scatterload_rt2                        0x0800014d   Thumb Code     0  init.o(.text)
    BusFault_Handler                         0x08000171   Thumb Code     2  stm32f1xx_it.o(i.BusFault_Handler)
    DMA1_Channel3_IRQHandler                 0x08000175   Thumb Code     6  stm32f1xx_it.o(i.DMA1_Channel3_IRQHandler)
    DebugMon_Handler                         0x080001ab   Thumb Code     2  stm32f1xx_it.o(i.DebugMon_Handler)
    Error_Handler                            0x080001ad   Thumb Code     4  main.o(i.Error_Handler)
    HAL_DMA_IRQHandler                       0x080001b1   Thumb Code   316  stm32f1xx_hal_dma.o(i.HAL_DMA_IRQHandler)
    HAL_DMA_Init                             0x08000305   Thumb Code    84  stm32f1xx_hal_dma.o(i.HAL_DMA_Init)
    HAL_DMA_Start_IT                         0x08000361   Thumb Code   112  stm32f1xx_hal_dma.o(i.HAL_DMA_Start_IT)
    HAL_Delay                                0x080003d1   Thumb Code    32  stm32f1xx_hal.o(i.HAL_Delay)
    HAL_GPIO_Init                            0x080003f5   Thumb Code   446  stm32f1xx_hal_gpio.o(i.HAL_GPIO_Init)
    HAL_GPIO_WritePin                        0x080005d5   Thumb Code    10  stm32f1xx_hal_gpio.o(i.HAL_GPIO_WritePin)
    HAL_GetTick                              0x080005e1   Thumb Code     6  stm32f1xx_hal.o(i.HAL_GetTick)
    HAL_IncTick                              0x080005ed   Thumb Code    12  stm32f1xx_hal.o(i.HAL_IncTick)
    HAL_Init                                 0x080005fd   Thumb Code    32  stm32f1xx_hal.o(i.HAL_Init)
    HAL_InitTick                             0x08000621   Thumb Code    54  stm32f1xx_hal.o(i.HAL_InitTick)
    HAL_MspInit                              0x08000661   Thumb Code    52  stm32f1xx_hal_msp.o(i.HAL_MspInit)
    HAL_NVIC_EnableIRQ                       0x0800069d   Thumb Code    26  stm32f1xx_hal_cortex.o(i.HAL_NVIC_EnableIRQ)
    HAL_NVIC_SetPriority                     0x080006b9   Thumb Code    60  stm32f1xx_hal_cortex.o(i.HAL_NVIC_SetPriority)
    HAL_NVIC_SetPriorityGrouping             0x080006f9   Thumb Code    26  stm32f1xx_hal_cortex.o(i.HAL_NVIC_SetPriorityGrouping)
    HAL_RCC_ClockConfig                      0x0800071d   Thumb Code   280  stm32f1xx_hal_rcc.o(i.HAL_RCC_ClockConfig)
    HAL_RCC_GetSysClockFreq                  0x08000849   Thumb Code    74  stm32f1xx_hal_rcc.o(i.HAL_RCC_GetSysClockFreq)
    HAL_RCC_OscConfig                        0x080008b5   Thumb Code   778  stm32f1xx_hal_rcc.o(i.HAL_RCC_OscConfig)
    HAL_SPI_ErrorCallback                    0x08000bd5   Thumb Code     2  stm32f1xx_hal_spi.o(i.HAL_SPI_ErrorCallback)
    HAL_SPI_Init                             0x08000bd7   Thumb Code   178  stm32f1xx_hal_spi.o(i.HAL_SPI_Init)
    HAL_SPI_MspInit                          0x08000c89   Thumb Code   140  spi.o(i.HAL_SPI_MspInit)
    HAL_SPI_Transmit_DMA                     0x08000d29   Thumb Code   202  stm32f1xx_hal_spi.o(i.HAL_SPI_Transmit_DMA)
    HAL_SPI_TxCpltCallback                   0x08000e01   Thumb Code     2  stm32f1xx_hal_spi.o(i.HAL_SPI_TxCpltCallback)
    HAL_SPI_TxHalfCpltCallback               0x08000e03   Thumb Code     2  stm32f1xx_hal_spi.o(i.HAL_SPI_TxHalfCpltCallback)
    HAL_SYSTICK_Config                       0x08000e05   Thumb Code    40  stm32f1xx_hal_cortex.o(i.HAL_SYSTICK_Config)
    HardFault_Handler                        0x08000e2d   Thumb Code     2  stm32f1xx_it.o(i.HardFault_Handler)
    MX_DMA_Init                              0x08000e31   Thumb Code    40  dma.o(i.MX_DMA_Init)
    MX_GPIO_Init                             0x08000e5d   Thumb Code   138  gpio.o(i.MX_GPIO_Init)
    MX_SPI1_Init                             0x08000ef5   Thumb Code    64  spi.o(i.MX_SPI1_Init)
    MemManage_Handler                        0x08000f3d   Thumb Code     2  stm32f1xx_it.o(i.MemManage_Handler)
    NMI_Handler                              0x08000f3f   Thumb Code     2  stm32f1xx_it.o(i.NMI_Handler)
    PendSV_Handler                           0x08000f41   Thumb Code     2  stm32f1xx_it.o(i.PendSV_Handler)
    SVC_Handler                              0x080010ad   Thumb Code     2  stm32f1xx_it.o(i.SVC_Handler)
    SysTick_Handler                          0x080010af   Thumb Code     4  stm32f1xx_it.o(i.SysTick_Handler)
    SystemClock_Config                       0x080010b3   Thumb Code    94  main.o(i.SystemClock_Config)
    SystemInit                               0x08001111   Thumb Code     2  system_stm32f1xx.o(i.SystemInit)
    UsageFault_Handler                       0x08001113   Thumb Code     2  stm32f1xx_it.o(i.UsageFault_Handler)
    __scatterload_copy                       0x08001135   Thumb Code    14  handlers.o(i.__scatterload_copy)
    __scatterload_null                       0x08001143   Thumb Code     2  handlers.o(i.__scatterload_null)
    __scatterload_zeroinit                   0x08001145   Thumb Code    14  handlers.o(i.__scatterload_zeroinit)
    draw                                     0x08001155   Thumb Code   178  oled_driver.o(i.draw)
    main                                     0x08001241   Thumb Code    62  main.o(i.main)
    u8g2Init                                 0x08001285   Thumb Code    32  oled_driver.o(i.u8g2Init)
    u8g2_ClearBuffer                         0x080012b1   Thumb Code    18  u8g2_buffer.o(i.u8g2_ClearBuffer)
    u8g2_DrawGlyph                           0x080012c3   Thumb Code   112  u8g2_font.o(i.u8g2_DrawGlyph)
    u8g2_DrawHLine                           0x08001333   Thumb Code    12  u8g2_hvline.o(i.u8g2_DrawHLine)
    u8g2_DrawHVLine                          0x08001341   Thumb Code   172  u8g2_hvline.o(i.u8g2_DrawHVLine)
    u8g2_DrawStr                             0x080013ed   Thumb Code    12  u8g2_font.o(i.u8g2_DrawStr)
    u8g2_DrawVLine                           0x080013fd   Thumb Code    12  u8g2_hvline.o(i.u8g2_DrawVLine)
    u8g2_FirstPage                           0x08001409   Thumb Code    28  u8g2_buffer.o(i.u8g2_FirstPage)
    u8g2_IsIntersection                      0x08001425   Thumb Code    48  u8g2_intersection.o(i.u8g2_IsIntersection)
    u8g2_NextPage                            0x08001455   Thumb Code    62  u8g2_buffer.o(i.u8g2_NextPage)
    u8g2_SetBufferCurrTileRow                0x08001493   Thumb Code    28  u8g2_buffer.o(i.u8g2_SetBufferCurrTileRow)
    u8g2_SetFont                             0x080014af   Thumb Code    32  u8g2_font.o(i.u8g2_SetFont)
    u8g2_SetFontDirection                    0x080014cf   Thumb Code     6  u8g2_font.o(i.u8g2_SetFontDirection)
    u8g2_SetFontMode                         0x080014d5   Thumb Code     6  u8g2_font.o(i.u8g2_SetFontMode)
    u8g2_SetFontPosBaseline                  0x080014dd   Thumb Code     6  u8g2_font.o(i.u8g2_SetFontPosBaseline)
    u8g2_SetMaxClipWindow                    0x080014e9   Thumb Code    28  u8g2_setup.o(i.u8g2_SetMaxClipWindow)
    u8g2_SetupBuffer                         0x08001505   Thumb Code    66  u8g2_setup.o(i.u8g2_SetupBuffer)
    u8g2_Setup_ssd1306_128x64_noname_f       0x08001549   Thumb Code    42  u8g2_d_setup.o(i.u8g2_Setup_ssd1306_128x64_noname_f)
    u8g2_UpdateRefHeight                     0x08001581   Thumb Code    82  u8g2_font.o(i.u8g2_UpdateRefHeight)
    u8g2_add_vector_x                        0x080015d3   Thumb Code    28  u8g2_font.o(i.u8g2_add_vector_x)
    u8g2_add_vector_y                        0x080015ef   Thumb Code    28  u8g2_font.o(i.u8g2_add_vector_y)
    u8g2_draw_hv_line_2dir                   0x080016b5   Thumb Code    18  u8g2_hvline.o(i.u8g2_draw_hv_line_2dir)
    u8g2_draw_l90_r0                         0x080016c7   Thumb Code    12  u8g2_setup.o(i.u8g2_draw_l90_r0)
    u8g2_font_calc_vref_font                 0x08001749   Thumb Code     4  u8g2_font.o(i.u8g2_font_calc_vref_font)
    u8g2_font_decode_get_signed_bits         0x0800174d   Thumb Code    20  u8g2_font.o(i.u8g2_font_decode_get_signed_bits)
    u8g2_font_decode_get_unsigned_bits       0x08001761   Thumb Code    52  u8g2_font.o(i.u8g2_font_decode_get_unsigned_bits)
    u8g2_font_decode_glyph                   0x08001795   Thumb Code   276  u8g2_font.o(i.u8g2_font_decode_glyph)
    u8g2_font_decode_len                     0x080018a9   Thumb Code   140  u8g2_font.o(i.u8g2_font_decode_len)
    u8g2_font_get_glyph_data                 0x08001935   Thumb Code   114  u8g2_font.o(i.u8g2_font_get_glyph_data)
    u8g2_is_intersection_decision_tree       0x080019ef   Thumb Code    24  u8g2_intersection.o(i.u8g2_is_intersection_decision_tree)
    u8g2_ll_hvline_vertical_top_lsb          0x08001a09   Thumb Code   144  u8g2_ll_hvline.o(i.u8g2_ll_hvline_vertical_top_lsb)
    u8g2_m_16_8_f                            0x08001a99   Thumb Code     8  u8g2_d_memory.o(i.u8g2_m_16_8_f)
    u8g2_read_font_info                      0x08001aa5   Thumb Code   106  u8g2_font.o(i.u8g2_read_font_info)
    u8g2_update_dimension_r0                 0x08001ba3   Thumb Code     4  u8g2_setup.o(i.u8g2_update_dimension_r0)
    u8g2_update_page_win_r0                  0x08001ba7   Thumb Code    34  u8g2_setup.o(i.u8g2_update_page_win_r0)
    u8x8_DrawTile                            0x08001bc9   Thumb Code    30  u8x8_display.o(i.u8x8_DrawTile)
    u8x8_InitDisplay                         0x08001be7   Thumb Code    16  u8x8_display.o(i.u8x8_InitDisplay)
    u8x8_RefreshDisplay                      0x08001bf7   Thumb Code    16  u8x8_display.o(i.u8x8_RefreshDisplay)
    u8x8_SetPowerSave                        0x08001c07   Thumb Code    16  u8x8_display.o(i.u8x8_SetPowerSave)
    u8x8_Setup                               0x08001c17   Thumb Code    34  u8x8_setup.o(i.u8x8_Setup)
    u8x8_SetupDefaults                       0x08001c39   Thumb Code    32  u8x8_setup.o(i.u8x8_SetupDefaults)
    u8x8_SetupMemory                         0x08001c5d   Thumb Code    16  u8x8_display.o(i.u8x8_SetupMemory)
    u8x8_ascii_next                          0x08001c6d   Thumb Code    14  u8x8_8x8.o(i.u8x8_ascii_next)
    u8x8_byte_4wire_hw_spi                   0x08001c7d   Thumb Code   118  oled_driver.o(i.u8x8_byte_4wire_hw_spi)
    u8x8_byte_SendByte                       0x08001cfd   Thumb Code    14  u8x8_byte.o(i.u8x8_byte_SendByte)
    u8x8_byte_SetDC                          0x08001d0b   Thumb Code    16  u8x8_byte.o(i.u8x8_byte_SetDC)
    u8x8_cad_001                             0x08001d1b   Thumb Code    82  u8x8_cad.o(i.u8x8_cad_001)
    u8x8_cad_EndTransfer                     0x08001d6d   Thumb Code    16  u8x8_cad.o(i.u8x8_cad_EndTransfer)
    u8x8_cad_SendArg                         0x08001d7d   Thumb Code    16  u8x8_cad.o(i.u8x8_cad_SendArg)
    u8x8_cad_SendCmd                         0x08001d8d   Thumb Code    16  u8x8_cad.o(i.u8x8_cad_SendCmd)
    u8x8_cad_SendData                        0x08001d9d   Thumb Code    16  u8x8_cad.o(i.u8x8_cad_SendData)
    u8x8_cad_SendSequence                    0x08001dad   Thumb Code   104  u8x8_cad.o(i.u8x8_cad_SendSequence)
    u8x8_cad_StartTransfer                   0x08001e15   Thumb Code    16  u8x8_cad.o(i.u8x8_cad_StartTransfer)
    u8x8_d_helper_display_init               0x08001e25   Thumb Code    96  u8x8_display.o(i.u8x8_d_helper_display_init)
    u8x8_d_helper_display_setup_memory       0x08001e85   Thumb Code    10  u8x8_display.o(i.u8x8_d_helper_display_setup_memory)
    u8x8_d_ssd1306_128x64_noname             0x08001e91   Thumb Code    54  u8x8_d_ssd1306_128x64_noname.o(i.u8x8_d_ssd1306_128x64_noname)
    u8x8_dummy_cb                            0x08001f95   Thumb Code     4  u8x8_setup.o(i.u8x8_dummy_cb)
    u8x8_gpio_call                           0x08001f99   Thumb Code    12  u8x8_gpio.o(i.u8x8_gpio_call)
    u8x8_stm32_gpio_and_delay                0x08001fa5   Thumb Code    50  oled_driver.o(i.u8x8_stm32_gpio_and_delay)
    u8x8_utf8_init                           0x08001fe1   Thumb Code     8  u8x8_8x8.o(i.u8x8_utf8_init)
    AHBPrescTable                            0x08001fe8   Data          16  system_stm32f1xx.o(.constdata)
    u8g2_font_4x6_tr                         0x08001ff8   Data         734  u8g2_fonts.o(.constdata)
    u8g2_font_inb24_mf                       0x080022d6   Data        8831  u8g2_fonts.o(.constdata)
    u8g2_font_inb30_mn                       0x08004555   Data         805  u8g2_fonts.o(.constdata)
    u8g2_cb_r0                               0x0800487c   Data          12  u8g2_setup.o(.constdata)
    Region$$Table$$Base                      0x0800499c   Number         0  anon$$obj.o(Region$$Table)
    Region$$Table$$Limit                     0x080049bc   Number         0  anon$$obj.o(Region$$Table)
    uwTickFreq                               0x20000000   Data           1  stm32f1xx_hal.o(.data)
    uwTickPrio                               0x20000004   Data           4  stm32f1xx_hal.o(.data)
    uwTick                                   0x20000008   Data           4  stm32f1xx_hal.o(.data)
    SystemCoreClock                          0x2000000c   Data           4  system_stm32f1xx.o(.data)
    hspi1                                    0x20000010   Data          88  spi.o(.bss)
    hdma_spi1_tx                             0x20000068   Data          68  spi.o(.bss)
    __initial_sp                             0x20000a30   Data           0  startup_stm32f103xb.o(STACK)



==============================================================================

Memory Map of the image

  Image Entry point : 0x080000ed

  Load Region LR_IROM1 (Base: 0x08000000, Size: 0x000049cc, Max: 0x00010000, ABSOLUTE)

    Execution Region ER_IROM1 (Exec base: 0x08000000, Load base: 0x08000000, Size: 0x000049bc, Max: 0x00010000, ABSOLUTE)

    Exec Addr    Load Addr    Size         Type   Attr      Idx    E Section Name        Object

    0x08000000   0x08000000   0x000000ec   Data   RO            3    RESET               startup_stm32f103xb.o
    0x080000ec   0x080000ec   0x00000000   Code   RO         7703  * .ARM.Collect$$$$00000000  mc_w.l(entry.o)
    0x080000ec   0x080000ec   0x00000004   Code   RO         7970    .ARM.Collect$$$$00000001  mc_w.l(entry2.o)
    0x080000f0   0x080000f0   0x00000004   Code   RO         7973    .ARM.Collect$$$$00000004  mc_w.l(entry5.o)
    0x080000f4   0x080000f4   0x00000000   Code   RO         7975    .ARM.Collect$$$$00000008  mc_w.l(entry7b.o)
    0x080000f4   0x080000f4   0x00000000   Code   RO         7977    .ARM.Collect$$$$0000000A  mc_w.l(entry8b.o)
    0x080000f4   0x080000f4   0x00000008   Code   RO         7978    .ARM.Collect$$$$0000000B  mc_w.l(entry9a.o)
    0x080000fc   0x080000fc   0x00000004   Code   RO         7985    .ARM.Collect$$$$0000000E  mc_w.l(entry12b.o)
    0x08000100   0x08000100   0x00000000   Code   RO         7980    .ARM.Collect$$$$0000000F  mc_w.l(entry10a.o)
    0x08000100   0x08000100   0x00000000   Code   RO         7982    .ARM.Collect$$$$00000011  mc_w.l(entry11a.o)
    0x08000100   0x08000100   0x00000004   Code   RO         7971    .ARM.Collect$$$$00002712  mc_w.l(entry2.o)
    0x08000104   0x08000104   0x00000024   Code   RO            4    .text               startup_stm32f103xb.o
    0x08000128   0x08000128   0x00000024   Code   RO         7708    .text               mc_w.l(memseta.o)
    0x0800014c   0x0800014c   0x00000024   Code   RO         8004    .text               mc_w.l(init.o)
    0x08000170   0x08000170   0x00000002   Code   RO          251    i.BusFault_Handler  stm32f1xx_it.o
    0x08000172   0x08000172   0x00000002   PAD
    0x08000174   0x08000174   0x0000000c   Code   RO          252    i.DMA1_Channel3_IRQHandler  stm32f1xx_it.o
    0x08000180   0x08000180   0x0000002a   Code   RO         1093    i.DMA_SetConfig     stm32f1xx_hal_dma.o
    0x080001aa   0x080001aa   0x00000002   Code   RO          253    i.DebugMon_Handler  stm32f1xx_it.o
    0x080001ac   0x080001ac   0x00000004   Code   RO           13    i.Error_Handler     main.o
    0x080001b0   0x080001b0   0x00000154   Code   RO         1099    i.HAL_DMA_IRQHandler  stm32f1xx_hal_dma.o
    0x08000304   0x08000304   0x0000005c   Code   RO         1100    i.HAL_DMA_Init      stm32f1xx_hal_dma.o
    0x08000360   0x08000360   0x00000070   Code   RO         1104    i.HAL_DMA_Start_IT  stm32f1xx_hal_dma.o
    0x080003d0   0x080003d0   0x00000024   Code   RO          722    i.HAL_Delay         stm32f1xx_hal.o
    0x080003f4   0x080003f4   0x000001e0   Code   RO         1030    i.HAL_GPIO_Init     stm32f1xx_hal_gpio.o
    0x080005d4   0x080005d4   0x0000000a   Code   RO         1034    i.HAL_GPIO_WritePin  stm32f1xx_hal_gpio.o
    0x080005de   0x080005de   0x00000002   PAD
    0x080005e0   0x080005e0   0x0000000c   Code   RO          726    i.HAL_GetTick       stm32f1xx_hal.o
    0x080005ec   0x080005ec   0x00000010   Code   RO          732    i.HAL_IncTick       stm32f1xx_hal.o
    0x080005fc   0x080005fc   0x00000024   Code   RO          733    i.HAL_Init          stm32f1xx_hal.o
    0x08000620   0x08000620   0x00000040   Code   RO          734    i.HAL_InitTick      stm32f1xx_hal.o
    0x08000660   0x08000660   0x0000003c   Code   RO          333    i.HAL_MspInit       stm32f1xx_hal_msp.o
    0x0800069c   0x0800069c   0x0000001a   Code   RO         1190    i.HAL_NVIC_EnableIRQ  stm32f1xx_hal_cortex.o
    0x080006b6   0x080006b6   0x00000002   PAD
    0x080006b8   0x080006b8   0x00000040   Code   RO         1196    i.HAL_NVIC_SetPriority  stm32f1xx_hal_cortex.o
    0x080006f8   0x080006f8   0x00000024   Code   RO         1197    i.HAL_NVIC_SetPriorityGrouping  stm32f1xx_hal_cortex.o
    0x0800071c   0x0800071c   0x0000012c   Code   RO          890    i.HAL_RCC_ClockConfig  stm32f1xx_hal_rcc.o
    0x08000848   0x08000848   0x0000006c   Code   RO          899    i.HAL_RCC_GetSysClockFreq  stm32f1xx_hal_rcc.o
    0x080008b4   0x080008b4   0x00000320   Code   RO          902    i.HAL_RCC_OscConfig  stm32f1xx_hal_rcc.o
    0x08000bd4   0x08000bd4   0x00000002   Code   RO          400    i.HAL_SPI_ErrorCallback  stm32f1xx_hal_spi.o
    0x08000bd6   0x08000bd6   0x000000b2   Code   RO          404    i.HAL_SPI_Init      stm32f1xx_hal_spi.o
    0x08000c88   0x08000c88   0x000000a0   Code   RO          210    i.HAL_SPI_MspInit   spi.o
    0x08000d28   0x08000d28   0x000000d8   Code   RO          416    i.HAL_SPI_Transmit_DMA  stm32f1xx_hal_spi.o
    0x08000e00   0x08000e00   0x00000002   Code   RO          418    i.HAL_SPI_TxCpltCallback  stm32f1xx_hal_spi.o
    0x08000e02   0x08000e02   0x00000002   Code   RO          419    i.HAL_SPI_TxHalfCpltCallback  stm32f1xx_hal_spi.o
    0x08000e04   0x08000e04   0x00000028   Code   RO         1201    i.HAL_SYSTICK_Config  stm32f1xx_hal_cortex.o
    0x08000e2c   0x08000e2c   0x00000002   Code   RO          254    i.HardFault_Handler  stm32f1xx_it.o
    0x08000e2e   0x08000e2e   0x00000002   PAD
    0x08000e30   0x08000e30   0x0000002c   Code   RO          185    i.MX_DMA_Init       dma.o
    0x08000e5c   0x08000e5c   0x00000098   Code   RO          161    i.MX_GPIO_Init      gpio.o
    0x08000ef4   0x08000ef4   0x00000048   Code   RO          211    i.MX_SPI1_Init      spi.o
    0x08000f3c   0x08000f3c   0x00000002   Code   RO          255    i.MemManage_Handler  stm32f1xx_it.o
    0x08000f3e   0x08000f3e   0x00000002   Code   RO          256    i.NMI_Handler       stm32f1xx_it.o
    0x08000f40   0x08000f40   0x00000002   Code   RO          257    i.PendSV_Handler    stm32f1xx_it.o
    0x08000f42   0x08000f42   0x00000022   Code   RO          432    i.SPI_DMAError      stm32f1xx_hal_spi.o
    0x08000f64   0x08000f64   0x0000000a   Code   RO          434    i.SPI_DMAHalfTransmitCplt  stm32f1xx_hal_spi.o
    0x08000f6e   0x08000f6e   0x00000064   Code   RO          438    i.SPI_DMATransmitCplt  stm32f1xx_hal_spi.o
    0x08000fd2   0x08000fd2   0x00000020   Code   RO          442    i.SPI_EndRxTxTransaction  stm32f1xx_hal_spi.o
    0x08000ff2   0x08000ff2   0x00000002   PAD
    0x08000ff4   0x08000ff4   0x000000b8   Code   RO          447    i.SPI_WaitFlagStateUntilTimeout  stm32f1xx_hal_spi.o
    0x080010ac   0x080010ac   0x00000002   Code   RO          258    i.SVC_Handler       stm32f1xx_it.o
    0x080010ae   0x080010ae   0x00000004   Code   RO          259    i.SysTick_Handler   stm32f1xx_it.o
    0x080010b2   0x080010b2   0x0000005e   Code   RO           14    i.SystemClock_Config  main.o
    0x08001110   0x08001110   0x00000002   Code   RO         1727    i.SystemInit        system_stm32f1xx.o
    0x08001112   0x08001112   0x00000002   Code   RO          260    i.UsageFault_Handler  stm32f1xx_it.o
    0x08001114   0x08001114   0x00000020   Code   RO         1203    i.__NVIC_SetPriority  stm32f1xx_hal_cortex.o
    0x08001134   0x08001134   0x0000000e   Code   RO         8016    i.__scatterload_copy  mc_w.l(handlers.o)
    0x08001142   0x08001142   0x00000002   Code   RO         8017    i.__scatterload_null  mc_w.l(handlers.o)
    0x08001144   0x08001144   0x0000000e   Code   RO         8018    i.__scatterload_zeroinit  mc_w.l(handlers.o)
    0x08001152   0x08001152   0x00000002   PAD
    0x08001154   0x08001154   0x000000ec   Code   RO         7655    i.draw              oled_driver.o
    0x08001240   0x08001240   0x00000044   Code   RO           15    i.main              main.o
    0x08001284   0x08001284   0x0000002c   Code   RO         7656    i.u8g2Init          oled_driver.o
    0x080012b0   0x080012b0   0x00000012   Code   RO         2203    i.u8g2_ClearBuffer  u8g2_buffer.o
    0x080012c2   0x080012c2   0x00000070   Code   RO         2448    i.u8g2_DrawGlyph    u8g2_font.o
    0x08001332   0x08001332   0x0000000c   Code   RO         4424    i.u8g2_DrawHLine    u8g2_hvline.o
    0x0800133e   0x0800133e   0x00000002   PAD
    0x08001340   0x08001340   0x000000ac   Code   RO         4425    i.u8g2_DrawHVLine   u8g2_hvline.o
    0x080013ec   0x080013ec   0x00000010   Code   RO         2449    i.u8g2_DrawStr      u8g2_font.o
    0x080013fc   0x080013fc   0x0000000c   Code   RO         4427    i.u8g2_DrawVLine    u8g2_hvline.o
    0x08001408   0x08001408   0x0000001c   Code   RO         2204    i.u8g2_FirstPage    u8g2_buffer.o
    0x08001424   0x08001424   0x00000030   Code   RO         4486    i.u8g2_IsIntersection  u8g2_intersection.o
    0x08001454   0x08001454   0x0000003e   Code   RO         2205    i.u8g2_NextPage     u8g2_buffer.o
    0x08001492   0x08001492   0x0000001c   Code   RO         2207    i.u8g2_SetBufferCurrTileRow  u8g2_buffer.o
    0x080014ae   0x080014ae   0x00000020   Code   RO         2463    i.u8g2_SetFont      u8g2_font.o
    0x080014ce   0x080014ce   0x00000006   Code   RO         2464    i.u8g2_SetFontDirection  u8g2_font.o
    0x080014d4   0x080014d4   0x00000006   Code   RO         2465    i.u8g2_SetFontMode  u8g2_font.o
    0x080014da   0x080014da   0x00000002   PAD
    0x080014dc   0x080014dc   0x0000000c   Code   RO         2466    i.u8g2_SetFontPosBaseline  u8g2_font.o
    0x080014e8   0x080014e8   0x0000001c   Code   RO         4674    i.u8g2_SetMaxClipWindow  u8g2_setup.o
    0x08001504   0x08001504   0x00000042   Code   RO         4675    i.u8g2_SetupBuffer  u8g2_setup.o
    0x08001546   0x08001546   0x00000002   PAD
    0x08001548   0x08001548   0x00000038   Code   RO         2409    i.u8g2_Setup_ssd1306_128x64_noname_f  u8g2_d_setup.o
    0x08001580   0x08001580   0x00000052   Code   RO         2473    i.u8g2_UpdateRefHeight  u8g2_font.o
    0x080015d2   0x080015d2   0x0000001c   Code   RO         2474    i.u8g2_add_vector_x  u8g2_font.o
    0x080015ee   0x080015ee   0x0000001c   Code   RO         2475    i.u8g2_add_vector_y  u8g2_font.o
    0x0800160a   0x0800160a   0x0000006e   Code   RO         4677    i.u8g2_apply_clip_window  u8g2_setup.o
    0x08001678   0x08001678   0x0000003c   Code   RO         4429    i.u8g2_clip_intersection2  u8g2_hvline.o
    0x080016b4   0x080016b4   0x00000012   Code   RO         4430    i.u8g2_draw_hv_line_2dir  u8g2_hvline.o
    0x080016c6   0x080016c6   0x0000000c   Code   RO         4679    i.u8g2_draw_l90_r0  u8g2_setup.o
    0x080016d2   0x080016d2   0x00000076   Code   RO         2476    i.u8g2_draw_string  u8g2_font.o
    0x08001748   0x08001748   0x00000004   Code   RO         2479    i.u8g2_font_calc_vref_font  u8g2_font.o
    0x0800174c   0x0800174c   0x00000014   Code   RO         2481    i.u8g2_font_decode_get_signed_bits  u8g2_font.o
    0x08001760   0x08001760   0x00000034   Code   RO         2482    i.u8g2_font_decode_get_unsigned_bits  u8g2_font.o
    0x08001794   0x08001794   0x00000114   Code   RO         2483    i.u8g2_font_decode_glyph  u8g2_font.o
    0x080018a8   0x080018a8   0x0000008c   Code   RO         2484    i.u8g2_font_decode_len  u8g2_font.o
    0x08001934   0x08001934   0x00000072   Code   RO         2485    i.u8g2_font_get_glyph_data  u8g2_font.o
    0x080019a6   0x080019a6   0x00000014   Code   RO         2486    i.u8g2_font_get_word  u8g2_font.o
    0x080019ba   0x080019ba   0x00000034   Code   RO         2487    i.u8g2_font_setup_decode  u8g2_font.o
    0x080019ee   0x080019ee   0x00000018   Code   RO         4487    i.u8g2_is_intersection_decision_tree  u8g2_intersection.o
    0x08001a06   0x08001a06   0x00000002   PAD
    0x08001a08   0x08001a08   0x00000090   Code   RO         4535    i.u8g2_ll_hvline_vertical_top_lsb  u8g2_ll_hvline.o
    0x08001a98   0x08001a98   0x0000000c   Code   RO         2381    i.u8g2_m_16_8_f     u8g2_d_memory.o
    0x08001aa4   0x08001aa4   0x0000006a   Code   RO         2488    i.u8g2_read_font_info  u8g2_font.o
    0x08001b0e   0x08001b0e   0x0000004e   Code   RO         2214    i.u8g2_send_buffer  u8g2_buffer.o
    0x08001b5c   0x08001b5c   0x00000046   Code   RO         4684    i.u8g2_update_dimension_common  u8g2_setup.o
    0x08001ba2   0x08001ba2   0x00000004   Code   RO         4685    i.u8g2_update_dimension_r0  u8g2_setup.o
    0x08001ba6   0x08001ba6   0x00000022   Code   RO         4689    i.u8g2_update_page_win_r0  u8g2_setup.o
    0x08001bc8   0x08001bc8   0x0000001e   Code   RO         7233    i.u8x8_DrawTile     u8x8_display.o
    0x08001be6   0x08001be6   0x00000010   Code   RO         7235    i.u8x8_InitDisplay  u8x8_display.o
    0x08001bf6   0x08001bf6   0x00000010   Code   RO         7237    i.u8x8_RefreshDisplay  u8x8_display.o
    0x08001c06   0x08001c06   0x00000010   Code   RO         7240    i.u8x8_SetPowerSave  u8x8_display.o
    0x08001c16   0x08001c16   0x00000022   Code   RO         7539    i.u8x8_Setup        u8x8_setup.o
    0x08001c38   0x08001c38   0x00000024   Code   RO         7540    i.u8x8_SetupDefaults  u8x8_setup.o
    0x08001c5c   0x08001c5c   0x00000010   Code   RO         7241    i.u8x8_SetupMemory  u8x8_display.o
    0x08001c6c   0x08001c6c   0x0000000e   Code   RO         4969    i.u8x8_ascii_next   u8x8_8x8.o
    0x08001c7a   0x08001c7a   0x00000002   PAD
    0x08001c7c   0x08001c7c   0x00000080   Code   RO         7657    i.u8x8_byte_4wire_hw_spi  oled_driver.o
    0x08001cfc   0x08001cfc   0x0000000e   Code   RO         5095    i.u8x8_byte_SendByte  u8x8_byte.o
    0x08001d0a   0x08001d0a   0x00000010   Code   RO         5097    i.u8x8_byte_SetDC   u8x8_byte.o
    0x08001d1a   0x08001d1a   0x00000052   Code   RO         5210    i.u8x8_cad_001      u8x8_cad.o
    0x08001d6c   0x08001d6c   0x00000010   Code   RO         5214    i.u8x8_cad_EndTransfer  u8x8_cad.o
    0x08001d7c   0x08001d7c   0x00000010   Code   RO         5215    i.u8x8_cad_SendArg  u8x8_cad.o
    0x08001d8c   0x08001d8c   0x00000010   Code   RO         5216    i.u8x8_cad_SendCmd  u8x8_cad.o
    0x08001d9c   0x08001d9c   0x00000010   Code   RO         5217    i.u8x8_cad_SendData  u8x8_cad.o
    0x08001dac   0x08001dac   0x00000068   Code   RO         5219    i.u8x8_cad_SendSequence  u8x8_cad.o
    0x08001e14   0x08001e14   0x00000010   Code   RO         5220    i.u8x8_cad_StartTransfer  u8x8_cad.o
    0x08001e24   0x08001e24   0x00000060   Code   RO         7242    i.u8x8_d_helper_display_init  u8x8_display.o
    0x08001e84   0x08001e84   0x0000000a   Code   RO         7243    i.u8x8_d_helper_display_setup_memory  u8x8_display.o
    0x08001e8e   0x08001e8e   0x00000002   PAD
    0x08001e90   0x08001e90   0x0000003c   Code   RO         6090    i.u8x8_d_ssd1306_128x64_noname  u8x8_d_ssd1306_128x64_noname.o
    0x08001ecc   0x08001ecc   0x000000c8   Code   RO         6092    i.u8x8_d_ssd1306_sh1106_generic  u8x8_d_ssd1306_128x64_noname.o
    0x08001f94   0x08001f94   0x00000004   Code   RO         7542    i.u8x8_dummy_cb     u8x8_setup.o
    0x08001f98   0x08001f98   0x0000000c   Code   RO         7461    i.u8x8_gpio_call    u8x8_gpio.o
    0x08001fa4   0x08001fa4   0x0000003c   Code   RO         7658    i.u8x8_stm32_gpio_and_delay  oled_driver.o
    0x08001fe0   0x08001fe0   0x00000008   Code   RO         4977    i.u8x8_utf8_init    u8x8_8x8.o
    0x08001fe8   0x08001fe8   0x00000010   Data   RO         1728    .constdata          system_stm32f1xx.o
    0x08001ff8   0x08001ff8   0x000002de   Data   RO         2735    .constdata          u8g2_fonts.o
    0x080022d6   0x080022d6   0x0000227f   Data   RO         4282    .constdata          u8g2_fonts.o
    0x08004555   0x08004555   0x00000325   Data   RO         4290    .constdata          u8g2_fonts.o
    0x0800487a   0x0800487a   0x00000002   PAD
    0x0800487c   0x0800487c   0x0000000c   Data   RO         4693    .constdata          u8g2_setup.o
    0x08004888   0x08004888   0x00000114   Data   RO         6093    .constdata          u8x8_d_ssd1306_128x64_noname.o
    0x0800499c   0x0800499c   0x00000020   Data   RO         8014    Region$$Table       anon$$obj.o


    Execution Region RW_IRAM1 (Exec base: 0x20000000, Load base: 0x080049bc, Size: 0x00000a30, Max: 0x00005000, ABSOLUTE)

    Exec Addr    Load Addr    Size         Type   Attr      Idx    E Section Name        Object

    0x20000000   0x080049bc   0x0000000c   Data   RW          740    .data               stm32f1xx_hal.o
    0x2000000c   0x080049c8   0x00000004   Data   RW         1730    .data               system_stm32f1xx.o
    0x20000010        -       0x0000009c   Zero   RW          212    .bss                spi.o
    0x200000ac        -       0x00000580   Zero   RW         2382    .bss                u8g2_d_memory.o
    0x2000062c   0x080049cc   0x00000004   PAD
    0x20000630        -       0x00000400   Zero   RW            1    STACK               startup_stm32f103xb.o


==============================================================================

Image component sizes


      Code (inc. data)   RO Data    RW Data    ZI Data      Debug   Object Name

        44          4          0          0          0        702   dma.o
       152         14          0          0          0        879   gpio.o
       166          6          0          0          0     533422   main.o
         0          0          0          0          0     139950   mui_u8g2.o
       468         90          0          0          0       2407   oled_driver.o
       232         28          0          0        156       1646   spi.o
        36          8        236          0       1024        776   startup_stm32f103xb.o
       164         28          0         12          0       5685   stm32f1xx_hal.o
       198         14          0          0          0      28795   stm32f1xx_hal_cortex.o
       586         32          0          0          0       3463   stm32f1xx_hal_dma.o
       490         34          0          0          0       2808   stm32f1xx_hal_gpio.o
        60          8          0          0          0        818   stm32f1xx_hal_msp.o
      1208         76          0          0          0       3958   stm32f1xx_hal_rcc.o
       760         18          0          0          0       6852   stm32f1xx_hal_spi.o
        32          6          0          0          0       4049   stm32f1xx_it.o
         2          0         16          4          0       1035   system_stm32f1xx.o
       214          0          0          0          0       3394   u8g2_buffer.o
        12          4          0          0       1408       1616   u8g2_d_memory.o
        56         14          0          0          0        961   u8g2_d_setup.o
      1224         10          0          0          0      13831   u8g2_font.o
         0          0      10370          0          0     124319   u8g2_fonts.o
       274          0          0          0          0       3433   u8g2_hvline.o
        72          0          0          0          0       1771   u8g2_intersection.o
       144          0          0          0          0       1310   u8g2_ll_hvline.o
       324          0         12          0          0     127271   u8g2_setup.o
        22          0          0          0          0       1705   u8x8_8x8.o
        30          0          0          0          0       1039   u8x8_byte.o
       266          6          0          0          0       4525   u8x8_cad.o
       260         10        276          0          0       2751   u8x8_d_ssd1306_128x64_noname.o
       200          0          0          0          0       3986   u8x8_display.o
        12          0          0          0          0        541   u8x8_gpio.o
        74          4          0          0          0       1610   u8x8_setup.o

    ----------------------------------------------------------------------
      7804        414      10944         16       2592    1031308   Object Totals
         0          0         32          0          0          0   (incl. Generated)
        22          0          2          0          4          0   (incl. Padding)

    ----------------------------------------------------------------------

      Code (inc. data)   RO Data    RW Data    ZI Data      Debug   Library Member Name

         0          0          0          0          0          0   entry.o
         0          0          0          0          0          0   entry10a.o
         0          0          0          0          0          0   entry11a.o
         4          0          0          0          0          0   entry12b.o
         8          4          0          0          0          0   entry2.o
         4          0          0          0          0          0   entry5.o
         0          0          0          0          0          0   entry7b.o
         0          0          0          0          0          0   entry8b.o
         8          4          0          0          0          0   entry9a.o
        30          0          0          0          0          0   handlers.o
        36          8          0          0          0         68   init.o
        36          0          0          0          0        108   memseta.o

    ----------------------------------------------------------------------
       128         16          0          0          0        176   Library Totals
         2          0          0          0          0          0   (incl. Padding)

    ----------------------------------------------------------------------

      Code (inc. data)   RO Data    RW Data    ZI Data      Debug   Library Name

       126         16          0          0          0        176   mc_w.l

    ----------------------------------------------------------------------
       128         16          0          0          0        176   Library Totals

    ----------------------------------------------------------------------

==============================================================================


      Code (inc. data)   RO Data    RW Data    ZI Data      Debug   

      7932        430      10944         16       2592    1025864   Grand Totals
      7932        430      10944         16       2592    1025864   ELF Image Totals
      7932        430      10944         16          0          0   ROM Totals

==============================================================================

    Total RO  Size (Code + RO Data)                18876 (  18.43kB)
    Total RW  Size (RW Data + ZI Data)              2608 (   2.55kB)
    Total ROM Size (Code + RO Data + RW Data)      18892 (  18.45kB)

==============================================================================

