:020000040800F2
:10000000300A0020050100083F0F00082D0E0008EF
:100010003D0F0008710100081311000800000000E6
:10002000000000000000000000000000AD1000080B
:10003000AB01000800000000410F0008AF100008ED
:100040001F0100081F0100081F0100081F01000810
:100050001F0100081F0100081F0100081F01000800
:100060001F0100081F0100081F0100081F010008F0
:100070001F010008750100081F0100081F0100088A
:100080001F0100081F0100081F0100081F010008D0
:100090001F0100081F0100081F0100081F010008C0
:1000A0001F0100081F0100081F0100081F010008B0
:1000B0001F0100081F0100081F0100081F010008A0
:1000C0001F0100081F0100081F0100081F01000890
:1000D0001F0100081F0100081F0100081F01000880
:1000E0001F0100081F0100081F010008DFF810D0E1
:1000F00000F02CF80048004741120008AFF30080E0
:10010000300A00200648804706480047FEE7FEE721
:10011000FEE7FEE7FEE7FEE7FEE7FEE7FEE7FEE7B7
:1001200011110008ED000008D2B201E000F8012B27
:10013000491EFBD270470022F6E710B513460A4667
:1001400004461946FFF7F0FF204610BD064C074D48
:1001500006E0E06840F0010394E807009847103497
:10016000AC42F6D3FFF7C6FF9C490008BC49000823
:10017000FEE70000014800F01BB800006800002006
:1001800030B590F840500124AC40C56B6C600468F9
:1001900063604368102B036803D099600068C260F5
:1001A00030BD9A600068C16030BD704772B6FEE72E
:1001B0002DE9F05FC16B0C6801680B68D0F840C096
:1001C000042202FA0CF2494DDFF824A1494E4A4FAD
:1001D000DFF828B1DFF828E122422CD05A072AD5CF
:1001E0000A68920603D40A6822F004020A600168D1
:1001F000A94201D1042219E0514501D1402215E064
:10020000B14202D14FF4806210E0B94202D14FF402
:1002100080420BE0594502D14FF4802206E071453F
:1002200002D14FF4800201E04FF080622F4908397B
:100230004A60C16A3BE04FF0020808FA0CF818EA7D
:10024000040F4FF000094FF0010235D05FEA8378C8
:1002500032D50B689B0605D40B6823F00A030B60AC
:1002600080F821200168A94201D1022219E05145FC
:1002700001D1202215E0B14202D14FF4007210E00A
:10028000B94202D14FF400520BE0594502D14FF46C
:10029000003206E0714502D14FF4001201E04FF048
:1002A0000072124908394A6080F82090816A00295A
:1002B0001AD0BDE8F05F0847082505FA0CF525427D
:1002C00012D01B0710D50B6823F00E030B6090F8BB
:1002D0004010C36B02FA01F15960826380F821205B
:1002E00080F82090016BE2E7BDE8F09F0800024033
:1002F0001C0002403000024044000240580002400E
:100300006C00024030B528B308C8134914221944C0
:10031000B1FBF2F18900C163104981630221417789
:100320001A6843F6F0718A43D0E900142143D0E9FA
:1003300002452C43214304692143446921438469D4
:100340002143114319600021416301224277017763
:10035000084630BD012030BDF8FFFDBF000002405F
:1003600070B5044690F82000002501280CD001202B
:1003700084F8200094F821600020012E06D084F833
:1003800020000225284670BD022070BD022684F898
:100390002160A0632068066826F0010606602046FA
:1003A000FFF7EEFEE06A00282068016802D041F005
:1003B0000E0106E021F0040101602068016841F0AF
:1003C0000A0101602068016841F001010160D9E77C
:1003D00070B5044600F004F90546601C02D00448DC
:1003E0000078044400F0FCF8401BA042FAD370BD32
:1003F000000000202DE9F84FDFF8B891002409F142
:10040000040A0AF1040B23460F270BF1040EC9E07E
:100410000125A5402A40AA427DD1674ED1F804C0EB
:10042000ACEB0608B44532D014DCBCF1030F3AD073
:1004300009DCBCF1000F2AD0BCF1010F1CD0BCF1CB
:10044000020F31D11DE0BCF1110F17D0BCF1120F1A
:100450002AD119E0B8F5881F19D006DCB8F5803F1D
:1004600015D0B8F5801F1FD111E0B8F5001F0ED0D0
:10047000B8F5041F18D10AE0CB6815E0CB681B1D46
:1004800012E0CB6808330FE0CB680C330CE08B68CC
:100490002BB1012B4FF0080303D0456104E0042386
:1004A00002E0056100E00023FF2A01D8064601E0D2
:1004B00000F104064FEA840501D9A5F12005D6F81C
:1004C000008007FA05FC28EA0C0803FA05F548EA5B
:1004D0000508C6F800804D68ED0062D5374DAE695D
:1004E00046F00106AE61AD6924F0030605F0010592
:1004F0000095334D06EB050CDCF80850A607360FC7
:1005000007FA06F825EA0805DFF8B880404503D168
:100510004FF0000817E044E0DFF8AC80404502D11E
:100520004FF001080FE0DFF8A480404502D14FF002
:10053000020808E0DFF89880404502D14FF0030838
:1005400001E04FF0040808FA06F848EA0508CCF87C
:1005500008804D68D9F80060ED034D4601D516437B
:1005600000E096432E604D68DAF80060AD03554612
:1005700001D5164300E096432E604D68DBF800601D
:10058000ED025D4601D5164300E096432E604D68AE
:10059000DEF80060AD02754601D5164300E09643D3
:1005A0002E60641C0D682A46E5407FF431AFBDE83B
:1005B000F88F0000000401400000111000100240FC
:1005C0000000014000080140000C01400010014003
:1005D000001401400AB1016170470904FBE7000003
:1005E00001488068704700000000002002488168D0
:1005F000027811448160704700000020074810B560
:10060000016841F010010160032000F075F80F202F
:1006100000F006F800F024F8002010BD0020024091
:1006200070B50D4D04464FF47A712878B1FBF0F0A7
:100630000A490968B1FBF0F000F0E4FB48B9102C5E
:1006400007D200222146501E00F036F800206C60D0
:1006500070BD012070BD0000000000200C000020D3
:100660000C4808B5816941F001018161816901F09F
:1006700001010091C16941F08051C161C06900F080
:10068000805000900448416821F0E06141F0007121
:10069000416008BD0010024000000140002809DB55
:1006A00000F01F02012191404009800000F1E0208C
:1006B000C0F8001170470000F0B40E4B1B680C46E8
:1006C000C3F30223C3F10705042D00D90425191D26
:1006D000072901D2002300E0DB1E012606FA05F1FE
:1006E000491E214099409E40761E16403143F0BC81
:1006F00000F010BD0CED00E0064900F007020868AC
:100700004FF6FF03184040EA0220034A10430860F6
:10071000704700000CED00E00000FA052DE9F047FD
:100720000F46050061D0434E306800F00700B84224
:1007300009D2306820F0070038433060306800F09C
:100740000700B84251D128683B4C810712D54007B9
:1007500003D5606840F4E06060602878000703D546
:10076000606840F4605060606068A96820F0F00044
:10077000084360602878C00728D06868012810D036
:100780002168022810D0890700292EDA616821F03B
:10079000030101436160FFF723FF804641F288397E
:1007A0000DE021688903EFE78901EDE7FFF718FF06
:1007B000A0EB0801494502D90320BDE8F087606835
:1007C000696800F00C00B0EB810FEFD1306800F0E9
:1007D0000700B8420BD9306820F00700384330607A
:1007E000306800F00700B84201D00120E5E7287822
:1007F000400705D56068E96820F4E0600843606060
:100800002878000706D56068296920F4605040EA1E
:10081000C100606000F018F86168084AC1F3031174
:10082000515CC8400649086006480068FFF7F8FEBA
:100830000020C2E70020024000100240E81F00082C
:100840000C0000200400002012A185B00FC98DE823
:100850000F0014A0144A006804905168134801F076
:100860000C03042B10D0082B0ED1C1F38343C90312
:100870001DF803000AD5516804AAC1F34041515C38
:100880000A4A5043B0FBF1F005B0704708494843AD
:10089000FAE7000002030405060708090A0B0C0D1D
:1008A0000E0F1010010200000010024000127A002A
:1008B00000093D002DE9F84F040070D02078C04DAC
:1008C000C00749D06868C0F38100012807D0686874
:1008D000C0F38100022809D16868C00306D52868E2
:1008E000800339D560680028E7D035E06068B0F54E
:1008F000803F0BD010B1B0F5A02F11D0286820F4A4
:1009000080302860286820F4802002E0286840F4C5
:1009100080302860606890B1FFF762FE06460AE00A
:10092000286840F480202860F0E700BFFFF758FEF9
:10093000801B642873D828688003F7D50CE0FFF784
:100940004FFE064605E000BFFFF74AFE801B642805
:10095000F0D828688003F7D420789A4E80074FF0AB
:1009600001094FF0000839D5686810F00C0F07D066
:100970006868C0F38100022809D16868C00306D402
:100980002868800714D52069012808D110E0206963
:10099000B0B1C6F80090FFF723FE074605E00AE174
:1009A000FFF71EFEC01B0228C4D828688007F7D5B1
:1009B0002868616920F0F80040EAC10028600DE075
:1009C000C6F80080FFF70CFE074604E0FFF708FEBC
:1009D000C01B022823D828688007F7D42078000796
:1009E0002CD57948A169D9B1C0F80090FFF7F8FD7E
:1009F000074604E0FFF7F4FDC01B02280FD8686A21
:100A00008007F7D571484FF4FA510068B0FBF1F058
:100A1000009000BF0098411E0091FAD20EE080E0E5
:100A2000C0F80080FFF7DCFD074604E0FFF7D8FDC3
:100A3000C01B022875D8686A8007F7D42078400761
:100A400060D5E8690027C00008D4E86940F080500C
:100A5000E861E869012700F0805000905C48016877
:100A6000C90513D40168834641F480710160FFF722
:100A7000B7FD824606E000BFFFF7B2FDA0EB0A001B
:100A800064284ED8DBF80000C005F5D5E0680128E1
:100A90000AD008B1052813D0286A20F00100286286
:100AA000286A20F0040002E0286A40F00100286271
:100AB000E06841F2883B98B1FFF792FD82460BE077
:100AC000286A40F004002862EEE700BFFFF788FDC7
:100AD000A0EB0A0159455AD8286A8007F6D50CE0E0
:100AE000FFF77EFD824605E0FFF77AFDA0EB0A01E5
:100AF00059454CD8286A8007F6D41FB1E86920F020
:100B00008050E861E06988B36968C1F38101022916
:100B100044D00228C6F8608004D0FFF761FD044687
:100B200038E034E0FFF75CFD074604E0FFF758FDCE
:100B3000C01B02282BD828688001F7D4206AB0F5A2
:100B4000803F05D16868A16820F4003008436860E0
:100B5000D4E908010843696821F474110843686006
:100B6000C6F86090FFF73CFD044606E025E000BFB4
:100B7000FFF736FD001B022809D828688001F7D549
:100B80001BE000BFFFF72CFD001B022802D9032049
:100B9000BDE8F88F28688001F4D40EE00128F7D072
:100BA0006868226A00F48031914204D1616A00F4DD
:100BB0007010884201D00120EAE70020E8E7000039
:100BC0000010024000004242800442420C0000201B
:100BD00000700040704770B5040009D0606A0025BD
:100BE00040B125616561A56294F8510040B10CE007
:100BF000012070BD6068B0F5827FF4D0E561F2E756
:100C000084F85050204600F03FF8022084F851004C
:100C10002068016821F040010160A088218900F46A
:100C2000827001F404410843A18901F40061084382
:100C3000217C01F002010843217D01F001010843FC
:100C4000218B01F400710843217F01F03801084332
:100C500094F8201001F080010843218D01F4005127
:100C6000084321680860A069042101EA1040216856
:100C700048602068C16921F40061C1616565012097
:100C800084F85100002070BD70B586B0002506467E
:100C9000009501950295039500681E49884237D159
:100CA0001D49886940F480508861886900F480504B
:100CB0000490886940F0040088618869174C00F04E
:100CC00004000490A02000900220019003200390D3
:100CD00069462046FFF78EFB4020CDE900056946B6
:100CE00020460295FFF786FB0E4C0D482060102031
:100CF000C4E901058020C4E903056561A5612046BA
:100D0000E561FFF7FFFA08B1FFF750FAB4646662D5
:100D100006B070BD003001400010024000080140E4
:100D200030000240680000202DE9F041044690F8B0
:100D300050000026012809D0012784F8507094F84B
:100D400051000025012804D002264EE00220BDE813
:100D5000F08189B182B1032084F851006565216377
:100D6000A286E286A56365642564A587E587A068F9
:100D7000B0F5004F02D00BE0012636E02068016894
:100D800021F0400101602068016841F48041016068
:100D9000A16C1848C862A16C17488862A16C1748FA
:100DA0000863A06C4563E38E2268216B0C32A06C53
:100DB000FFF7D6FA38B1606D40F01000606501268B
:100DC00084F8517011E020680168490603D4016875
:100DD00041F0400101602068416841F0200141601C
:100DE0002068416841F00201416084F8505030466B
:100DF000ADE70000650F00086F0F0008430F000803
:100E00007047704710B5401EB0F1807F01D30120BC
:100E100010BD4FF0E02460610F21601700F07AF9F7
:100E20000020A06107202061002010BDFEE7000027
:100E3000094808B5416941F001014161406900225A
:100E400000F00100009011460D20FFF735FCBDE8D1
:100E500008400D20FFF722BC001002402DE9F041B0
:100E600086B0002420480094019402940394816980
:100E700041F020018161816901F0200104918169C3
:100E800041F004018161816901F0040104918169EB
:100E900041F0080181618069144F00F0080004905E
:100EA000002210213846FFF795FBDFF8448000222E
:100EB00003214046FFF78EFB102001250326CDE9D4
:100EC0000005CDE9024669463846FFF793FA02204D
:100ED000CDE90240CDE9006569464046FFF78AFA50
:100EE00006B0BDE8F081000000100240000801409B
:100EF000000C0140104810B50E4901604FF482719A
:100F00004160002102228160C0E903120122426196
:100F1000520282612022C0E90721416281620A21D6
:100F2000C162FFF758FE002803D0BDE81040FFF76C
:100F30003DB910BD0030014010000020FEE7FEE783
:100F4000704710B5406A01684A6822F003024A609F
:100F5000416D41F010014165012180F85110FFF70A
:100F600039FE10BD10B5406AFFF74BFF10BD38B514
:100F70000546446AFFF734FB02462868006880068D
:100F800023D42068416821F0200141602068416835
:100F900021F0020141606421204600F01AF818B1E6
:100FA000606D40F020006065A068002118B92068DD
:100FB000C26880680090E186012084F85100606D6D
:100FC00018B12046FFF706FE38BD2046FFF718FF90
:100FD00038BD38B50B46009204460022802100F04F
:100FE00009F8002804D0606D40F0200060650320FF
:100FF00038BD00002DE9F8431E4691468846044658
:10100000089DFFF7EDFA401B351AFFF7E9FA07468E
:1010100025480068C0F3CB30684338E0701C37D0F7
:10102000FFF7DEFAC01BA84203D215B1009860B3E7
:101030002CE02068416821F0E00141606068B0F573
:10104000827F0BD1A068B0F5004F02D0B0F5806F61
:1010500004D12068016821F040010160A06AB0F568
:10106000005F09D12068016821F400510160206807
:10107000016841F400510160012084F85100002012
:1010800084F850000320BDE8F8830025401E00903E
:101090002068816838EA010004D000214945BDD1AB
:1010A0000020F0E70121F9E70C0000207047FFF76E
:1010B0009DBA30B58FB028216846FFF73CF814215F
:1010C0000AA8FFF738F801210804CDE90010002430
:1010D000029402250491CDE907504FF4E0100990E5
:1010E0006846FFF7E7FB08B172B6FEE70F20CDE9CF
:1010F0000A054FF48060CDE90C4002210AA80E9445
:10110000FFF70CFB002801D072B6FEE70FB030BD30
:101110007047FEE70907090E002804DB00F1E02014
:1011200080F80014704700F00F0000F1E02080F814
:10113000141D704702E008C8121F08C1002AFAD126
:1011400070477047002001E001C1121F002AFBD147
:101150007047000010B50446012100F0BBF90021E2
:10116000204600F0B4F92849204600F0A0F927A352
:1011700014220021204600F039F90121204600F018
:10118000A6F92349204600F092F922A3082215214E
:10119000204600F02BF90021204600F098F91A496A
:1011A000204600F084F91CA31E223321204600F0C3
:1011B0001DF91AA31E224321204600F017F92F2300
:1011C00023220221204600F0B4F82F2324220321F9
:1011D000204600F0AEF80C2320222D21204600F0FE
:1011E0000DF90C2321222E21204600F007F90C498D
:1011F000204600F05CF920463622BDE8104009A3E5
:10120000012100F0F3B80000D622000855000000CC
:10121000554500083800000067000000B2000000DB
:10122000F81F00086769746875622E636F6D2F6F11
:101230006C696B726175732F75386732000000003E
:10124000A6B0FFF7DBF9FFF734FFFFF707FEFFF764
:10125000EFFDFFF74FFE012211460948FFF7BAF9EB
:10126000684600F00FF8684600F0CEF86846FFF7D1
:1012700071FF684600F0EEF80028F7D1F3E70000B0
:10128000000C014010B50446064B074A074900F020
:101290005BF9204600F0A7FC2046BDE81040002185
:1012A00000F0B1BCA51F00087D1C00087C480008A8
:1012B00001680A7C90F83810406B5143C900FEF772
:1012C0003ABF2DE9F041044690F870001F461546DC
:1012D0000E4630B1012809D002280CD0032815D1C0
:1012E0000FE0E16D20468847284408E0E16D204684
:1012F0008847301A09E0E16D20468847281A85B2F0
:1013000004E0E16D20468847304486B22846A4F8C0
:101310006460A4F8660039460025204600F00AFB08
:10132000010003D0204600F035FA85B22846BDE81A
:10133000F08138B50024009400F002F838BD0000B8
:101340003FB581B0044690F88C00089900283AD047
:10135000BDF81000002836D0012811D9022902D08A
:10136000032907D00CE0BDF80820101A401CADF886
:10137000080005E0BDF80C20101A401CADF80C0068
:1013800011F0010521D0B4F84810BDF808008142E1
:1013900019D8B4F84A10814215D9B4F84E30B4F8CF
:1013A0004C2004A90DF10C0000F066F900280AD0C9
:1013B0000095206BBDF81030BDF80C208568BDF895
:1013C00008102046A84705B030BDB4F84C10BDF851
:1013D0000C008142F7D8B4F84E108142F3D9B4F82A
:1013E0004A30B4F8482004A902A8DDE730B4024C22
:1013F000446030BC00F06DB96D1C000838B50124A4
:101400000094FFF79DFF38BD10B5044690F8930097
:1014100010B12046FFF74CFF2046BDE810400021E8
:1014200000F037B870B50D461E460446B0F84E10B1
:10143000B0F84C00049B00F0DAFA002809D0B4F8A8
:101440004A10B4F8480033462A46BDE8704000F020
:10145000CEBA70BD70B5044600F059FB94F839005F
:1014600094F838100844C5B22068407CA84204D8DB
:10147000204600F0C0FB002070BD94F8930010B12E
:101480002046FFF715FF2946204600F002F801200C
:1014900070BD10B5044680F83910006B0168204615
:1014A0008847206B41682046BDE81040084710B5CA
:1014B0000446806D884209D004F17400A16500F0F3
:1014C000F1FA2046BDE8104000F05AB810BD80F88F
:1014D0007010704780F86D10704700000149C165B9
:1014E00070470000491700080021A0F85010A0F82C
:1014F00054104FF6FF71A0F85210A0F85610016B6F
:101500004968084770B5044600250498A565E3625C
:10151000616384F8382084F8395084F86D5084F879
:101520009150012184F8921084F89310206301688F
:10153000204688472046FFF7D7FF2046FFF7CEFF1B
:1015400084F8705070BD00007CB50C4600931346C3
:101550000546084A084900F05EFB01A800F09CFA25
:101560000146064B00949DF804202846FFF7CAFF69
:101570007CBD00001B1D0008911E0008091A000810
:1015800010B5816D00291AD090F9813080F88E3025
:1015900090F9822080F88F2090F88D1000290ED0CD
:1015A00001290DD090F97E4090F980100C449C42A6
:1015B00001DD80F88E408A4201DD80F88F1010BD79
:1015C00090F983108B4201DA80F88E1090F9841024
:1015D000F1E72BB1012B05D0022B06D0104402E01D
:1015E000084400E0801A80B27047401AFBE72BB134
:1015F000012B05D0022B06D0401A02E0104400E077
:10160000084480B27047801AFBE738B50446B0F84A
:1016100056000090B4F85230B4F85420B4F850108A
:101620002046FFF7FFFE18B3012084F88C00B4F8C1
:101630004810B4F85000814201D2A4F84800B4F830
:101640004A10B4F85200814201D9A4F84A00B4F813
:101650004C10B4F85400814201D2A4F84C00B4F804
:101660004E10B4F85600814201D9A4F84E0038BD9E
:10167000002084F88C0038BD30B504880D882544DE
:10168000ADB2AC4205D99C4202D25D1EADB200E0C3
:1016900014469C4201D2954201D8002030BD9442AC
:1016A00000D214469D4200D91D460480281B0880A4
:1016B000012030BD38B5C58F049C0094521BC46A0C
:1016C00092B2A04738BD38B5049C0094FFF7F2FFF2
:1016D00038BD2DE9F0471C4691468846064600F085
:1016E0007FFC00254FF6FF777268217830469047DF
:1016F0000346B84225D0641CA3F57F40FE38F3D0E2
:101700004A4641463046FFF7DCFD96F8701031B18D
:10171000012907D0022908D003290FD10AE008EBDC
:10172000000104E009EB000106E0A8EB00011FFA4C
:1017300081F803E0A9EB00011FFA81F9284485B282
:10174000D2E72846BDE8F0870020704710B50C4668
:1017500000F006F80122641EA240801A40B210BDBB
:1017600030B50568047B2A78E2406318DBB2082BA9
:1017700009D36D1C05602D78C4F10804A5401543FC
:10178000083BEAB2DBB201248C40641E14400373B0
:10179000204630BD2DE9F843054600F1600400F015
:1017A0000CF915F96B6F2046E97BFFF7CFFF8146F7
:1017B000297C2046FFF7CAFF0746697C20466B3D1F
:1017C000FFF7C4FF804694F90A00002857DDF0199E
:1017D000404247B2237CA0883A464946FFF7F9FECB
:1017E000A080237C3A46E0884946FFF700FFE0806E
:1017F000A188277C02460B4637B1012F0AD0022F61
:1018000040D0032F0FD146E094F90A7030443B4496
:101810009BB207E0891B491C94F90A705B1C89B2D2
:101820009BB2384480B200902846FFF7FBFD30B3EE
:101830000020207284F8090095F876102046FFF702
:101840008FFF814695F877102046FFF789FF0746FE
:1018500000224946284600F027F80122394628464A
:1018600000F022F801212046FFF77AFF0028EFD18F
:1018700094F90900B042DFDBA07B85F89200404676
:10188000BDE8F88394F90A705B1CC91B491C89B236
:101890009BB2921B04E094F90A7033449BB2D21BB2
:1018A000521C92B2401CBDE72DE9F74F84B00D46A3
:1018B000049C94F8687094F869806034A07AC01B26
:1018C000C6B20196B54200D201954FFA88F279B2BC
:1018D000A088B4F806B0237C92468946FFF779FECB
:1018E0000290237C524649465846FFF780FE024646
:1018F000069808B1A17B02E0607B50B9E17B0498B7
:1019000080F89210207C0090DDE901310498FFF707
:1019100017FDB54207D3A81BC5B208F10100002787
:1019200000F0FF08CAE77819207284F8098007B030
:10193000BDE8F08F70B50D460146806D1730FF2D64
:1019400010D8612D02D3B1F8881003E0412D02D3E5
:10195000B1F886100844417819B30278AA42F9D147
:10196000801C70BDB1F88A100C1826460021304644
:1019700000F019F804440221304600F014F8361D36
:10198000A842F3D34FF6FF72207802EA0021607874
:10199000084306D0A84201D1E01C70BDA0780444E1
:1019A000F2E7002070BD08444FF6FF7201784078DE
:1019B00002EA0121084480B2704730B5054600F1C3
:1019C000600401660020207315F8781F2046FFF799
:1019D000C7FEA07269782046FFF7C2FEE072A87EBB
:1019E000A07310B10020E07330BD0120FBE78A42F4
:1019F00005D2834201D89A4203D90120704783421D
:101A0000F9D8002070470000F0B502F00706012465
:101A1000B440002590F892E0E7B2DDF814C02C46FF
:101A2000BEF1010F01D83D4600D03C46076822F0C8
:101A30000702BCF1000F3F7C07FB02F7BAB2476B0D
:101A40003A44114409D108785B1E284360401B04C6
:101A500001F8010B1B0CF6D1F0BD0A78761C2A4365
:101A60006240A3F101030A7016F007069BB206D08C
:101A70006A06150E6206140E002BEED1F0BD428FE1
:101A8000114490F89220012A03D800BF4FF00105BD
:101A9000F2D04FF00104EFE70821017000487047D1
:101AA0002C02002070B505460878287048786870C8
:101AB0008878A870C878E8700879287148796871C2
:101AC00088790C46A871E079E871207A2872607AEA
:101AD0006872A07AA872E07AE872207B2873607B33
:101AE0006873A07BA873E07BE873207C28741121C5
:101AF0002046FFF758FF688213212046FFF753FF67
:101B0000A88215212046FFF74EFFE88270BD2DE91F
:101B1000F843064690F8387090F839500068002471
:101B20004FF6FF7890F81190316830462A460B7CCA
:101B3000716B04FB03FC1FFA8CFC08EACC0C6144BB
:101B40000091002100F040F8641C6D1CE4B2EDB27D
:101B5000BC4201D24D45E7D3BDE8F883F0B590F81B
:101B600038204FF6FF75036805EAC2018187197CAA
:101B700005EAC101418790F8394005EAC401C187EF
:101B80005E7CA718B74201D9321B92B205EAC202A5
:101B900020F8401F11444180998A8180D98AC180F0
:101BA000F0BDFFF7DBBF0021A0F84810B0F84410EB
:101BB000A0F84A10B0F84010A0F84C10B0F842104D
:101BC000A0F84E10FFF721BD1CB58DF805108DF85B
:101BD0000620049C8DF804300094012284686B4632
:101BE0000F21A0471CBD30B484680023A44630BC3C
:101BF0001A460A21604730B484680023A44630BCEA
:101C00001A461021604730B484680023A4460A466F
:101C100030BC0B2160472DE9F04115460E460446C5
:101C2000069F00F009F86761A660C4E903532046E7
:101C3000BDE8F04100F012B8002140F8081B064A48
:101C4000026042608260C260C17681770161FF21DB
:101C5000017780F820107047951F000830B4846821
:101C60000023A44630BC1A4609216047080001D071
:101C70000A2801D14FF6FF707047000070B5044686
:101C8000182919D004DC142931D0172904D105E012
:101C900019291FD020290AD0002070BD19461548E7
:101CA000FFF742F81348C18E0029FCD11FE0022142
:101CB0001148FEF78FFC1AE020684921027820467F
:101CC00000F06AF920680023656982782C2120469B
:101CD000A8470CE0206800236569C2782C212046C3
:101CE000A847206849214278204600F055F9012094
:101CF00070BD000010000020000C014013B501224F
:101D0000046901AB1721A0471CBD30B4046900234E
:101D1000A4460A4630BC202160472DE9F041054623
:101D2000A1F114001F4616460C4606281CD2DFE817
:101D300000F01203030E121200212846FFF7E5FF00
:101D400031462846FFF7DAFF0120BDE8F081012186
:101D50002846FFF7DAFF3B46324621462846D5F8AB
:101D600010C0BDE8F04160470020EEE730B4C46821
:101D70000023A44630BC1A461921604730B4C46819
:101D80000023A4460A4630BC1621604730B4C4681C
:101D90000023A4460A4630BC1521604730B4C4680D
:101DA0001346A4460A4630BC17216047F8B50C46D6
:101DB0004FEA000514F8011B182924D00EDC152960
:101DC00019D0162917D0172923D120788DF80000B3
:101DD0006A4601212846FFF7E1FF0AE0192912D0DF
:101DE000FE2916D122788DF800202921284600F0FE
:101DF000D3F8641CDEE722788DF80020EE6800231B
:101E00002846B047F5E70023EE681A462846B04753
:101E1000D0E7F8BD30B4C4680023A44630BC1A46ED
:101E20001821604770B50023456904461A462821E9
:101E3000A8470023E5681A4614212046A847012236
:101E40004B21204600F0A8F820682921027920467D
:101E500000F0A2F800224B21204600F09DF82068F7
:101E600029210279204600F097F801224B212046D3
:101E700000F092F82068292142792046BDE87040A0
:101E800000F08AB80160897C80F822107047000059
:101E900070B50C46054600F019F890B9092C0BD026
:101EA0000A2C01D0002070BD2846FFF7BBFF064971
:101EB0002846FFF77BFF04E003492846CC31FFF7B3
:101EC000E1FF012070BD0000A04800082DE9F041AD
:101ED0001E46144605460B2908D00D290ED00E29A2
:101EE0001ED00F2927D00020BDE8F0811AB1284963
:101EF000FFF75CFF4AE02649491FF9E74AB1244948
:101F00000C31FFF753FF286890F8130085F8220082
:101F10003CE01F49491DFFF749FF2868807CF5E731
:101F2000FFF778FF81212846FFF730FF214628463A
:101F3000FFF724FF27E0FFF76DFF707995F8221077
:101F400001EBC000C7B240212846FFF71FFF102059
:101F500040EA17112846FFF719FF07F00F0128463E
:101F6000FFF70CFFB07940F0B0012846FFF706FFFD
:101F700030793268C006010E2846FFF70FFF641E55
:101F800014F0FF04F4D12846FFF7F0FE0120ABE780
:101F90008D4800080020704730B444690023A446EF
:101FA00030BC604710B5104649290BD004DC282905
:101FB0000FD029290DD102E04A290AD105E0FEF708
:101FC00007FA06E01021044801E002210348FEF769
:101FD00001FB012010BD000000080140000C014081
:101FE000002180F82610704700000000000000006B
:101FF00001020304060708095F000202030302044A
:1020000004040600FF05FF05FF00EE01DC02C1200D
:102010000580CD002106E9C8AC00220693CB24152B
:10202000230AACC8A434541A2A012409B3C7A5A1B1
:10203000C148092508ABC864D446012609ACC8C507
:1020400014AB98022705D1CB082807F2C7A9660070
:102050002908B2C7C45429002A07ABC8A46A352B83
:1020600008ABC8C5B462022C0692C729002D058BA7
:10207000CA0C2E05C9C8042F07ABC8566504300822
:10208000ABC8554355003107ABC825590D3207ABD6
:10209000C835531A3308ABC8CC94C1023408ABC856
:1020A000243562013508ABC88CA8C1023607ABC81D
:1020B0004DD5023708ABC8CC5446003807ABC8AD85
:1020C000D6023907ABC8B5E4023A06E1C8C4003B02
:1020D00007AAC765A8003C08ABC8A61A64103D064D
:1020E0009BC96C303E09ABC86490412A013F09ABE3
:1020F000C86890324C004007ABC82D1B084108ABA4
:10210000C85543A9004208ABC8A8B4D2024308ABE3
:10211000C8553255004408ABC8A8642D004508AB2B
:10212000C88CA8E2004608ABC88CA862044708AB7C
:10213000C8CDA492004808ABC82435940A4907AB1F
:10214000C8AC580D4A07ABC896AA024B08ABC824C6
:10215000B5920A4C07ABC8C4E6004D08ABC8A43121
:10216000940A4E08ABC8AAA124004F07ABC8555625
:10217000055008ABC8A8B462045108B3C755560D42
:10218000025208ABC8A8B4920A5308ABC86D90C1FC
:10219000025407ABC8ACD8025507ABC824D70856C1
:1021A00008ABC8246BA4045708ABC82435860A586A
:1021B00008ABC824D552015908ABC8245556005A5B
:1021C00007ABC8CC540E5B06EAC8AC4A5C09ABC886
:1021D000C40C3288015D06AAC8A86A5E0593CB3597
:1021E0005F058BC70C6006D2CBC4006107A3C82D66
:1021F00095046208ABC84495D4026307A3C8CD0C0C
:10220000046408ABC8A6A592006506A3C85553662A
:1022100008ABC8A6B462026708ABC7AD2417006854
:1022200008ABC84495AC006908ABC86524D3006A04
:1022300008B3C766582E006B08ABC8C4B4920A6CCA
:1022400007ABC8C8D6006D08A3C8A4A154006E0788
:10225000A3C8A864056F07A3C855AA027008ABC736
:10226000A8B462047108ABC72D9564007208A3C8B6
:10227000A41523007308A3C88D0C16007408ABC8FE
:10228000A51533087507A3C8242B097607A3C8240E
:10229000AB027708A3C8243554007807A3C8A4323A
:1022A000157908ABC72495E4027A07A3C8CC940635
:1022B0007B08B3C7A6246B107C06E9C80C017D0916
:1022C000B3C76410554C117E0794CB2595000000D0
:1022D0000004FFFF0000BF02050405060104061507
:1022E0002600F918FA19F904E20AAF2262200BD588
:1022F0001CF587FFFF7F17002119D51CF587532395
:1023000016588BF417879CFB0011689E0D920F2FB7
:10231000002224D51CF58743A28845065164104548
:102320000651641045065164104506516410450677
:10233000F9F0FF13002343D51CF587EB838C35069A
:10234000596390350659638C45C6380F8CF1C01817
:10235000171A83AC31C81A83AC31C62263A007C4F4
:1023600078608C07C61964AC31C81A83AC31061B7F
:10237000632C32C622637C78243BD51CF5875B2412
:1023800012689A520C91900C114488430411011167
:1023900041560984654D6B89254642594490450450
:1023A00031811041CA182490F240302EAD5622F5EA
:1023B0006114002541D51CF587DBE410720A2988D9
:1023C00010A204294490500A112410E3100A049D1D
:1023D0004016110412582015956AA81D3448218111
:1023E0000C524820831022C820848C444839859898
:1023F000F2E136002641D51CF587EBE521A6541104
:1024000044114212212411421221631141186AC75A
:1024100099861A0984884206114590420219A4201F
:1024200042CC21E494428C3145A4F2802869905337
:102430004CF8701B002710D51CF5875B4292487F33
:102440001FFE7F06002823D51CF5877B2396675C3B
:10245000793548450A92487F9244124B24B18A2428
:102460001A686289448A02002925D51CF587BD2196
:102470000BB46215492C9148122949227D90440AD7
:10248000125820058BB35E8143860F0E002A29D592
:102490001CF5879F2591B6C6204398128628E40133
:1024A00061DC2AD038C488208A0C920A218898A13D
:1024B000C2111F7E14002B18D51CF5875F2091BE1A
:1024C000F580200F08F2805024D2F7E177012C1517
:1024D000D51CF587FFFF9D110B34CFC012499C22FC
:1024E0008963012D0ED51CF587FFCD67BE0FFF97C1
:1024F000002E11D51CF587FFFF2281E659907CB88C
:1025000005002F29D51CF58783818E484112491C6F
:1025100091C4112948228124124822812412482280
:10252000812412482281448E0FDB003044D51CF5F3
:1025300087078A4B6B25134A22851C628A21A618BD
:10254000524C21C6145246208490210821630C422B
:10255000C81883102206A1C228841C434A31C4141F
:10256000434C31E49042900926AD955CF9F000317E
:1025700016D51CF58717C8330D2DC548202C101211
:10258000E9FFBF0F0F3221D51CF587F3C625C552D1
:1025900011E61043904024D2208904D25E05E9E27E
:1025A00050C1FC3E9C063328D51CF587F3C525C5D4
:1025B0005211260953220D9276186AA8A558451A79
:1025C0000A889C61C831C220A654331F5E00342F94
:1025D000D51CF587474624B07AC65D6D04C24820F5
:1025E0006C08B2C6206B0CA206218910924621E825
:1025F00081501E08E581E048A4F7E13A003525D571
:102600001CF587D3EE788744BAB8144B0D9152CE9F
:102610003844924867C621861C624E38A7A5D5CC9F
:1026200087073635D51CF587078A4B6B25130A2A91
:1026300045241247A482510D35644639A5904319AB
:1026400072882187187288218732E49042521125BE
:10265000AD955CF9F002003721D51CF587D3EE78F3
:1026600071441247A4E288248E48C511A938220576
:1026700049A42089E4C323003839D51CF587F3A683
:1026800029C552110591520E31E410430E31041147
:1026900042521164A58618094511421031141A8658
:1026A000205208228520528A21C708839852CD7C67
:1026B000783935D51CF587F3C5A5B5920925914222
:1026C0000E31E450861C62C821861C624A29A70C80
:1026D000731C6ACA0412A9382249A2905482416C20
:1026E000A5663E3C01003A16D51CF587FF1A81E627
:1026F00059907C788940F32C483EDC023B1CD51C69
:10270000F587FF1A81E659907C7869C402CD33B011
:102710004412A748E29881013C1BD51CF5879F0A0B
:1027200072C0E20EBBE70A34F08206DE6089648A7A
:102730000F0F023D1BD51CF587BFFD80200F08F24F
:1027400080F830F880200F08F280F8F02F023E1950
:10275000D51CF5872F073A6481E8E17B5633EDB04D
:102760003B671E89E2C3073F25D51CF58753A52982
:10277000C59011E6104390400405442205092CAF92
:102780008254A43E240934CF82E4C3034043D51CC1
:10279000F587074C538A2123CAA10A49A30C83C891
:1027A000206A0CB2C6184690314421640C410A19C3
:1027B000439042C61084943146096610C1C8188BF4
:1027C0009051022144967804494C2D763E5C074195
:1027D00038D51CF58717C21C728A051668DC08C339
:1027E0008D301A09848D31D818449141D428433151
:1027F000D4903BE310430E31231142122144913116
:10280000161164910F9701423AD51CF587CB4B35D1
:10281000E40E21C790530A41A410440A41A49043F6
:102820000C21C7B8D3D033E49442102924114212AA
:10283000212411421221049142CA29CFB8C33E9CDF
:1028400007432AD51CF587078A53A99D238C29861F
:102850009482082149180249A49F2491C482C42962
:10286000869823CC694A35F3E13C00443ED51CF5FB
:1028700087CB4B35E40E21C710530C39A510440A01
:1028800041A49044084984904408498490440849EC
:102890008490440849A310440A41A490430C31C5D4
:1028A00010624E432CA90F2F004522D51CF587CB73
:1028B0000F84F240280F8442227DD11DEF9048BF43
:1028C000F840280F84F240F8701A004616D51CF51F
:1028D00087D3CF7C8644FA62431D2291FEFBF00C25
:1028E000004732D51CF587078A4BAA1D33CAA10AB7
:1028F00041C39014CE88F40A22A420420A22241153
:102900004212290491421031E4107384392EA966D1
:102910003E9C074846D51CF587CB049142102904FC
:1029200091421029049142102904914210290491E6
:102930004210290F84F240280F844210290491424A
:102940001029049142102904914210290491421047
:102950002904914210F9701A004913D51CF587D348
:102960000D758D44FAFFC71AEA3E1C074A1CD51C98
:10297000F587EB2C718D44FAFF5430240D52501121
:1029800045AD955CF9F006004B41D51CF587C304B5
:1029900015421029E410431D520822842432882253
:1029A000A22812CA228130D4124B8C08B2C8208AC5
:1029B0008C9208218914824829879862C821869CB4
:1029C00052082A8424F2E134004C11D51CF587CB3F
:1029D00024D2FFFFC567BE0FB7014D4ED51CF5874A
:1029E000C3630D4212212411524E21E514628A2143
:1029F000A61872C621671C42C2140821610A8410FD
:102A00005104214414410819631042C6188410125D
:102A100008950821891092082189109208218910AF
:102A2000920821897C380D004E4DD51CF587CB04CA
:102A300091421029E590520E29C690720A29A7905A
:102A4000820829240C420A09649042C418A4104147
:102A500015328620850C1248216404520841859461
:102A6000538831851853C829859C520822852052E5
:102A7000481A1F4E034F3BD51CF587F3A629C59076
:102A800011E61043215208228428328822832832FA
:102A9000882283283288228328328822832842860B
:102AA0001A8520520822863A4618C4946AE6C3035F
:102AB0005029D51CF587CB2C35E40E29C690530A36
:102AC00041A410440A41A410440A39A59062CC33B1
:102AD000EEB04422FDFBF00E005143D51CF587F308
:102AE000A629C59011E610530A41A41044CA5064A7
:102AF0001045065164104506516410450651641096
:102B00004506516410450841A410440C311529882C
:102B100029D50E1C92C4D4903B1F3800523ED51CC0
:102B2000F587CB2C35E40E21C790530A41A41044FD
:102B30000A41A410440A39C490628C3B0DB1440888
:102B4000498490440A41A410440C39C414430E3102
:102B5000E49442102904950F9701532FD51CF58753
:102B6000074C53A921238C21671C82C42191481250
:102B70000D440FBD038DA4223141912214290391EC
:102B800072C4310E31763E9C075416D51CF587C3AE
:102B90000F08F280200F884522FDFFDF87170055C0
:102BA00042D51CF587CB2411421221241142122157
:102BB00024114212212411421221241142122124F3
:102BC00011421221241142122124114212212411F6
:102BD0004212210495420E316698D3D262E7C3793E
:102BE00000563BD51CF587C34491411419448D42CE
:102BF0001029041133D038E48C430C41C38C44CAEF
:102C000048841035C858648C450461438C46C268BA
:102C1000C899674112891C527C7802005752D51C12
:102C2000F587BB848D31D818A38832C628838C41A0
:102C3000C834283206354619A38851C62862942123
:102C40008C188504234621615648106284618C18D3
:102C5000411C23CC31A39C42CA29A49C420A1A6677
:102C6000A461461A66A4614612487C380E005839A1
:102C7000D51CF587C32491421031D42166244248E3
:102C800022642C22C8228134E4CC3390C0028D43CC
:102C90000D3122C822822842482284206228440A18
:102CA000418410453E5C065929D51CF587C34491E3
:102CB0004112290491420E65C821852442482264AC
:102CC0002C22C8226234D4CE33AF44FAEFC30B00B7
:102CD0005A2ED51CF587CB0F84F240280F044822CA
:102CE00081542490C411092491402A1248E2880496
:102CF000923858200F08F280200F880F97015B143C
:102D0000D51CF5873B2C718944FAFFFF224BDC87E9
:102D10000A005C2BD51CF587BD11892491481289C6
:102D20002491481289249148128924914812891CBF
:102D300092C8214924924422870C1F0E015D12D5AE
:102D40001CF5872B0D7591FEFF7FA8F72103005E10
:102D500020D51CF5871784249140E3501B81302235
:102D6000C81A642842082266A870C287FF87015FDC
:102D700013D51CF587FFFF671F18E381311E181F4D
:102D80001A00601AD51CF5873B818A29E6902492A7
:102D900058C112899CE690E2C3FF4100612AD51C0C
:102DA000F5877FE1B0951A2AC2A48048A4123BCED1
:102DB0003C530C290491424E29C498620432EFB866
:102DC0005406F9701A006233D51CF5872324D24FBC
:102DD00014D5903B4718530C754A2188148248211A
:102DE000881482482188148248218798628831C3D8
:102DF00018774648688CF2E1016321D51CF5877F7E
:102E0000C234A51832C2986228240C89F42489E5BA
:102E1000087444412DA9663E9C076435D51CF5878E
:102E20008324D2A78A20A81D678C3886985208224E
:102E3000852052082285205208228520520822A58A
:102E40001C628829C688731C6AAA08F2E1340065EE
:102E50002CD51CF5877FC134A5582AC21C62C8191D
:102E600088148248792094074279201412492C91C1
:102E7000A0908C30A729D5CC87F300661CD51CF513
:102E80008763A629C552110511231289546BA863C3
:102E900024D2FFFBF006006736D51CF5877FA09093
:102EA000715E79201442CA21662062C821861C52B4
:102EB0000A2AA224A6944A8BC4021D72E71582082E
:102EC000218910920839C39877D8421D006836D5F9
:102ED0001CF5872B24D26F94440242EEA0508E2919
:102EE000C414431D62C821861C62C821861C62C8A6
:102EF00021861C62C821861C62C821861C62C821EA
:102F00001F4E036919D51CF587534312582289E3D4
:102F1000838C1A16E9FF1A4BDC87E3006A1FD51C65
:102F2000F58773231658C5F181554B8BF4FF53C1B8
:102F300090244A414594B45672E6036B35D51CF58E
:102F4000872324D2EF94424C31A494434841641027
:102F5000450459241096B112C8228328324A22A46B
:102F60002052CA21861C628A21A71482CA87CB00FC
:102F70006C12D51CF5872B896591FEFFC7DCF13EED
:102F8000DC066D1DD51CF5873F4D0219A43C20C8F9
:102F9000036394604219F4FFFFFFFFDF87CB006EED
:102FA00035D51CF587BF4D46492420E40E0AE59827
:102FB000424C31D421861C62C821861C62C82186FD
:102FC0001C62C821861C62C821861C62C821861C1E
:102FD000F2E136006F30D51CF5877FA1B8B4183206
:102FE000C19C528A21871492082189109208218954
:102FF000109208218914728829861C134C622AB900
:10300000F2E105007034D51CF587BF4D44510DB970
:10301000738431C550A714824821881482482188BE
:103020001482482188147288298698238C71A721DC
:10303000228A2291DE0705007133D51CF5877FA017
:103040000882DA71C6886388298520520822852083
:103050005208228520520822852062C82186986263
:103060008C38C7A1A68A2091BE0C00721CD51CF515
:1030700087BF4E464924A4F34C0AE418234E810529
:103080009248FF7D7805007327D51CF5877FE1B056
:1030900095DA31E21872C62128A012CF530E4113DF
:1030A0008B118998814839C21C87D83A1F1E741D1C
:1030B000D51CF58757492471C8A9B9E32D12E9BF7A
:1030C00022940964AD959AF9701C007535D51CF5EC
:1030D00087BF4D0E31E410430E31E410430E31E44E
:1030E00010430E31E410430E31E410430E31E4106E
:1030F000430E31A59463C2390E355504F9701B0097
:103100007630D51CF5873F5DD228248D42103103DF
:103110008D43CE38C41044CA48A40C35C858648CBA
:10312000450461248C869C79E69548E2F8F0040019
:103130007743D51CF587BF4C16196391318A2064FB
:103140000C42066D0C420619A38C51C42843183159
:10315000CA10468C428208438C428210230C63843E
:103160003946985386398594534841849034CCF835
:10317000701C00782FD51CF587BF4D1029C59043D2
:103180000A4984104504592490769E790516681CD6
:103190006244104506518410440C754A21887C38DD
:1031A0000D007939D51CF587BF4D122104914210CD
:1031B00031E41043CE40C31044CA50831045065139
:1031C000640C460261240C37C270E715582089D47C
:1031D0000A84AC21CA4A0CBDF2C1007A1DD51CF587
:1031E000873FFECC07E9607915A4C1F2CA7B209421
:1031F000074279207C380D007B20D51CF587270EEF
:103200004B4B29F348A40F12775C81261639248989
:10321000F417CF532C3594017C0ED51CF58753241D
:10322000D2FFFFFFE7017D21D51CF587D3C725A677
:10323000609124D227493CB03CE3082491FE6071A0
:1032400066A995D8F920007E17D51CF5877FF31461
:10325000515628E3015106418F7CF87F0200A00BF4
:10326000D51CF587FFFF7F1700A118D51CF58753E4
:10327000049A6783E40334E414E91FAC17C7872773
:1032800000A240D51CF58737482471C8018B4BAA92
:103290009D129029828461C818231842C60886901E
:1032A000A108198A90A1C8208A0CA2C8188C88414C
:1032B000C229610C815028A8A5C58E1B72F6610138
:1032C00000A32BD51CF587078A4B6B2513482A25AD
:1032D0002812299858E68824912E8E48E031C1ACF6
:1032E00030CA038214A14A40E5C37100A429D51C49
:1032F000F5878F8B24CE3B2DAD540649E30C34CE9D
:1033000040E30C440A492594D4CE334314314E5043
:10331000E2C3BF0900A52FD51CF587C34411421095
:10332000290411431D624622842442C6228230129F
:103330004643CE3C030973C7632412E68EC748A4F4
:103340003EBC0000A611D51CF5875324D2FFF7011F
:103350002791FE9F07A73AD51CF5874BA629C55292
:1033600011E610331031229158A281A82935C441A9
:103370008498430C39C4906308414CA986A08925E0
:1033800012240E39C3147344414DA9663EE401A8CA
:1033900018D51CF587C541862AA2A4224A2AA2A8CC
:1033A00041C687FFFF1500A948D51CF5875F284E49
:1033B0002986482986041308210105324650618870
:1033C00011081961881146196284498D30A91126A6
:1033D00035C208848831C2105418630415C6180217
:1033E0000542C620829462C8694A35F3E13C00AACE
:1033F00025D51CF587F3C621A698208385421A5A45
:103400004AAD440849A3904446494C2D96BA3BDE48
:1034100087BF0E00AB2ED51CF587FF5A30810D32C9
:103420005411241541121924914112194415515473
:10343000114515515411451541D6208305133E7C85
:103440000800AC10D51CF587FF4BEE7891DE873F66
:103450000400AD0ED51CF587FFCD67BE0FFF9700AA
:10346000AE47D51CF5875F284E2986482946094274
:103470004648810C21C61862464618621A448C30B0
:10348000441A230C91C608432032C21013198184B8
:103490003186186384318618E390430822C50C7383
:1034A0009A52CD7C380F00AF0ED51CF587E34B6DDB
:1034B0001FFEFF4700B01CD51CF587F3A625A654B8
:1034C0001125114212212415519462C8950FFF1F36
:1034D00004B120D51CF5876F91486F3D20C8038249
:1034E0003C201489F4FBC03E20C803823C203E5C93
:1034F00006B21ED51CF5874BC5A5B51419448D32EF
:10350000E4880492573D02096489FBF0BF0A00B3C6
:1035100021D51CF5874BC5A5B5D620430E779C79E0
:103520004712399430231142D25AC9950FFFCB006C
:10353000B414D51CF58789304924B0402A8E293E21
:10354000FCFFEB00B53BD51CF5873F4D0E31E41079
:10355000430E31E410430E31E410430E31E41043C6
:103560000E31E410430E31E410430E31A51421C492
:10357000094B3C40C4124650641012E97D6000B60D
:103580004CD51CF5874B0BB5E38C12A32C31CA121A
:10359000A32C31CA12A32C318C12C328314E120332
:1035A00021319411831131181183113118118311B4
:1035B0003118118311311811831131181183113110
:1035C00018118311311811E3431900B711D51CF5F7
:1035D00087FF0D02CDB320F9F0BF0C00B813D51C46
:1035E000F587FFFF0F88496261630C965C4100B963
:1035F00013D51CF5875B031677B930869CFF3EFC1C
:103600002F03BA2AD51CF587078A434CAD414822BF
:1036100084A461461A66A461461A66A451482284AD
:1036200028C5D0231F0877BC0F7F1D00BB2ED51CDB
:10363000F587FF5230A10932161165115116196430
:1036400091411619241551501105155112112511CA
:1036500051D4208305133E7C0C00BC4ED51CF5874D
:10366000BD81C2296810830609629C81C6196898C9
:1036700091861969149246196A10A206196B0C12E8
:103680004724714412472464A841482284A4414A33
:103690001A438481C61861A021A633843243A8420C
:1036A000D040210D393EA401BD4DD51CF587BD810B
:1036B000C2296810730809629C81862168989186E6
:1036C000196994A146196A10A206196B0C124724B5
:1036D0007144124724A2A8214E1A61087286106410
:1036E0009C818619689CE99042D0280491329428E4
:1036F00089A50F6100BE51D51CF587B9F250194557
:103700008C51861A841C43C831832C228809658811
:1037100071C42081982406428128324624714412C3
:1037200047247190A108196A1092C828690C1106E3
:1037300022438481C61062A0215419439581061248
:1037400068C8F1210D00BF28D51CF5874B049A6786
:1037500041F20127918204965741020B24914201C4
:1037600011241031E498701053C9950F2F00C03EFA
:10377000D51C3517B23C04CB141F9C30879C62814A
:10378000051A37C270238C460261630C36065164F9
:103790001035CA500C35E4CE38C49043CC488490E0
:1037A000440851648C450459E4C36500C13FD51CED
:1037B000F5074140D3502B517CB0C21C728A0516CC
:1037C00068DC08C38D301A09848D31D818449141C2
:1037D000D4284331D4903BE310430E3123114212DD
:1037E00021449131161164910F9701C243D51C7584
:1037F0000A7344D3D22AA12832C80A46C030879C13
:103800006281051A37C270238C460261630C36064A
:1038100051641035CA500C35E4CE38C49043CC48BE
:103820008490440851648C450459E4C36500C34244
:10383000D51CB5210F0981DC2101A940CA073ACC6A
:1038400021A7586081C68D30DC08A39140D8188329
:103850008D411419448D3214430DB9330E31E410E7
:10386000331221241142141963114116F970190001
:10387000C43FD51C751E64A8224A2AA2A4228A1A13
:10388000647C50C494248924966739D486186D08C2
:10389000B288206B90B1062189A586DA21861CCAE0
:1038A0000C440A49A30C4506516490453E5C06C58C
:1038B00043D51C351AB1BC218413433831841B61B4
:1038C000BC12879CC5020B346E84E146186E04C29C
:1038D000C6186C0CA2C8206A94A1186AC89D718889
:1038E0002187188248198910A206218A8CB1C887BD
:1038F000CB00C639D51CF587F32C31D4D071A7A1E4
:1039000036026923104602614310364432442433A0
:10391000463263104506515B628910924621881435
:1039200082485162182586511F2E03C731D51CF5D8
:1039300087078A4BAA9D238C2986948208214918DF
:103940000249A49F2491C482C429869823CC694A41
:103950003513C524B1B031064BAE7400C828D51C50
:10396000B521D1C003090D1F800742792094074279
:103970002191BEE88E7748A45F7C2094074279208D
:103980007C781000C926D51CB522EF30E4C807F7B3
:1039900081501E08E5815048A42FBAE31D12E91793
:1039A0001F08E581501E081F1E04CA2DD51CB50A2C
:1039B0009240E3D02A82AC41C60A27A4074279206C
:1039C0009407422191BEE88E7748A45F7C2094073B
:1039D0004279207C380D00CB2DD51C751E65A43294
:1039E0000A2AA3A0324A1A65F407427920940742B2
:1039F0002191BEE88E7748A45F7C2094074279200D
:103A00007C380D00CC1BD51CF5099344034F1C34A6
:103A10007C101AEA1A89F4FF8F35D47D380E00CD58
:103A200018D51CF51AEFB4E3C807B8A1AE9148FF4A
:103A3000FF5843DD872701CE1ED51C75129240D357
:103A4000D22A82A851C60A27A886BA4622FDFF6359
:103A50000D751F8E03CF1ED51C751E65A4320A2A54
:103A6000A3A0324A1A65F886BA4622FDFF630D7597
:103A70001F8E03D03BD51CF587D36AB1D41019E74C
:103A800010430E31C590430C39C410440A4164A45C
:103A900042462A64A4422152082285A061C8218698
:103AA0001C62A8434A396418D4D052EAC303D157E0
:103AB000D51CB521F088811A22E1A840CA079320BD
:103AC000520822A51C52CA21C518524E21E5145293
:103AD00010218584414821810C528818831422A822
:103AE00042C610A490410229848C400A21A89072F9
:103AF0000A31A610630A39A590530A41A410440A5A
:103B000049E3C36900D241D51C3517B2C003CB14B9
:103B10001F14D39462C8087388A110290411421499
:103B200019449141141944914114194491411419B3
:103B30004491411421438D4210290411431D230C4B
:103B4000624A35F3E101D342D51CF50761C0E28E2C
:103B50002B507C904C538A2123CC218642A41044C4
:103B6000085164104506516410450651641045061D
:103B7000516410450651840C350A41A410440C755B
:103B80008C308829D5CC8707D444D51C7512924037
:103B9000E3922AA2A841C614CD34A51832C21C62F1
:103BA00028440A41841045065164104506516410AA
:103BB0004506516410450651641045C850A3104491
:103BC0000A41C450C708839852CD7C78D544D51C8F
:103BD000B52924A414C671688803C907D834A51868
:103BE00032C21C6228440A418410450651641045C3
:103BF000065164104506516410450651641045C8CD
:103C000050A310440A41C450C708839852CD7C7811
:103C1000D647D51C751964A8224A2AA2A4228A1A5A
:103C2000647C804D538A2123CC218642A410440811
:103C30005164104506516410450651641045065103
:103C40006410450651840C350A41A410440C758C4F
:103C5000308829D5CC8707D729D51CF587DF0C7389
:103C60001C81882188909288282BB5F3CA330EB125
:103C700012882AA2A0420A1A86A480C487BF040020
:103C8000D84DD51CF587F130493262A076DA31C2C1
:103C90001C6228630A31861033C220C408410629F9
:103CA000439041C8181419831A839041C6206410A8
:103CB000310A19448C420609C38C720A29C6105372
:103CC0000A394698D321224A22537C1807D949D56C
:103CD0001CF5097444034F1C347C004822842442A0
:103CE0004822842442482284244248228424424890
:103CF00022842442482284244248228424424822A6
:103D00008424424822842442082A851C62CC30A79D
:103D1000A5C5CE87F300DA48D51CF51AD0B4E388E0
:103D20000C1F1092082189109208218910920821F5
:103D300089109208218910920821891092082189FE
:103D40001092082189109208218910920821891067
:103D5000824A21871833CC6969B1F3E15100DB4C09
:103D6000D51C751AB1BCD3922AA2A851C60C8824BE
:103D70004248228424424822842442482284244205
:103D800048228424424822842442482284244248EF
:103D9000228424424822842442482284A052C821FA
:103DA000C60C735A5AEC7C380F00DC4DD51C759943
:103DB00052190595515019258D323E902411421209
:103DC00021241142122124114212212411421221D4
:103DD00024114212212411421221241142122124C1
:103DE0001142122124114212210495420E3166988B
:103DF000D3D262E7C37900DD30D51C350B923CD3BA
:103E0000CE23317C4088228324520822851CCA900C
:103E1000430A49849044C858449045C468A89D67A3
:103E20005E89F4DF871700DE29D51CF587CB24D205
:103E3000C586DC7986986208228520520822852072
:103E4000520822851C629E71A72112E97D78070025
:103E5000DF46D51CF5874BC5A5B592110591520CCF
:103E600039C490430C39C410530C29E5107110115A
:103E70000711910C31A610440A41859044084984E9
:103E8000904408498410440A11429842823224A482
:103E90004384F9701E00E034D51CF5878130472C2F
:103EA0009148128924327C600E5BA9A1224C0A88B9
:103EB000442AB1E3CC33C590421029E494428C29C2
:103EC0004620F38E4B65900FA701E133D51CF58793
:103ED0000931472CAF402A92193E3887ADD4501192
:103EE0002605442295D871E6996248218814724AC1
:103EF00021C614239079C7A532C887D300E239D5EB
:103F00001CF5870521472CEFB8110823812C3208B6
:103F10000B457C300E5BA9A1224C0A88442AB1E3F0
:103F2000CC33C590421029E494428C294620F38E6C
:103F30004B65900FA701E334D51CF587C9F29018A3
:103F4000C7A1218E0AA47CA81DB65243459814101F
:103F5000895462C799678A21852052C829851853D8
:103F60008C40E61D97CA201F4E03E437D51CF58709
:103F70003BA38C5446416514544649A38C0FAE694B
:103F80004A3554844901914825769C79A6185208EF
:103F900022859C528831C50864DE71A90CF2E13497
:103FA00000E537D51CF5878101CD136238318413C4
:103FB000623813C707FBB0951A2AC2A48048A4121E
:103FC0003BCE3C530C290491424E29C498620432E2
:103FD000EFB85406F9701A00E63CD51CF5873F4F40
:103FE00008392898F2802024A0304A28840C45C83B
:103FF00050848CF240200F88F1C01065904408492D
:104000008490444821611471C4180F0C72C431A506
:10401000900FA701E72AD51CF5877FC234A5DA31B6
:10402000E294728621481812E94912CB11E888827D
:104030005A5ACC4431492C4D10C192331C00E837F8
:10404000D51CF5878130472C9148128924327C6039
:104050004C538AA522CC21869C8148218894074212
:1040600079209407422191C412090AC908739A520F
:10407000CD7C380F00E935D51CF5878940472CAF3A
:10408000402A12293E38A629C55211E61043CE40D7
:10409000A41044CA03A13C10CA03A1904862890439
:1040A000856484394DA9663E9C07EA3AD51CF5879C
:1040B0000131472CEF34D486208B0CB204111F1031
:1040C000D39462A9087388216720520822E58150A1
:1040D0001E08E581504824B144824232C29CA65455
:1040E000331FCE03EB38D51CF5873BA38C544641D8
:1040F0006514544649A38C0FAE694AB1544639E45D
:104100004C6914924679209407427920141289242C
:104110009120818C30A729D5CC87F300EC1CD51CCD
:10412000F58790882456914812C70C1F14D4B048C4
:10413000FFD758E23E3C0900ED1BD51CF58798904F
:104140002412486081248E0F326A58A4FF6B2C71B0
:104150001F9E04EE20D51CF58781308724D038C4FB
:1041600048206C0CC242111F04D4B048FFD758E25B
:104170003E1C07EF1FD51CF5873B830C5544494572
:1041800094544451838C0F2A6A58A4FF6B2C711FDE
:104190008E03F039D51CF587C9010F094CB184D6BF
:1041A000526B0C22094B8AA1768C30A62AE4144269
:1041B0001221241142122124114212212491420E73
:1041C00031C5906382494C25673E3CF140D51CF5D2
:1041D00087C5F2CE10A82112500AA57C2891511251
:1041E0000908B9834239A610530C758821871872C3
:1041F0008821871872882187187288218718728809
:10420000218718728821877CB80D00F239D51CF5FA
:1042100087BC902356914812890C1F9CE2D262C839
:1042200004734A29861C524822842442482284244A
:10423000424822842452C821A618724C3089A9E42D
:10424000CA871700F339D51CF5870531472C9082B2
:104250000592193E40C5A5C59009E694520C39A4B3
:104260009044084984904408498490440849A490A3
:10427000434C31E498601253C9950F2F00F43FD599
:104280001CF5870121472CEFB8110823812C320837
:104290000B457C408A4B8B2113CC29A518724821F1
:1042A000891092082189109208218910924821874B
:1042B0009862C831C124A6922B1F5E00F539D51C27
:1042C000F587C5F29010C89D31CE2B1F72C5A5C5CC
:1042D0009009E694520C39A490440849849044080B
:1042E000498490440849A490434C31E498601253A7
:1042F000C9950F2F00F63DD51CF58733A38C544686
:10430000416514544649A38C0F7071693164823938
:10431000A514430E292411421221241142122124F2
:1043200011421229E410530C392698C45472E5C383
:104330000B00F71AD51CF5871F16924422C507F704
:1043400099EF434E481289141F7E1700F83FD51C81
:10435000F587DF1693ACA45662C80473CA388690FA
:104360001146216408420819821032C6208408329E
:10437000082162102A8C42CA0883106348392698A3
:10438000C4D052239445A4F8300E00F93FD51CF553
:104390008792882512492291448A193E10E41043DD
:1043A0000E31E410430E31E410430E31E410430E9D
:1043B00031E410430E31E410430E31E410534A3916
:1043C000269CE3505345900F2F02FA3DD51CF587EC
:1043D00096980492482025C707971C62C821861C1E
:1043E00062C821861C62C821861C62C821861C62A4
:1043F000C821861C62C821861C624A29C784731C96
:104400006AAA08F2E14500FB44D51CF587012109A1
:104410002CD0B811082362B031080B257C00C821CC
:10442000861C62C821861C62C821861C62C821863F
:104430001C62C821861C62C821861C62C821A69401
:10444000724C38C7A1A68A201F6E03FC42D51CF50A
:104450008733A38C5446416514544649A38C0F26D8
:1044600039C490430C39C490430C39C490430C397F
:10447000C490430C39C490430C39C490430C39C4E4
:1044800094528E09E738D45411E4C36D00FD43D52E
:104490001CF58798902412486081248E0F2E498441
:1044A00010440A41C490430C39030D431029430DB5
:1044B0004214194491311809849130DC08C39D5786
:1044C000608124522B10B286282B31F4CA071800C1
:1044D000FE35D51CF5872324D24F14D5903B4718C1
:1044E000530C754A218814824821881482482188F7
:1044F000148248218798628839C218771A22A22824
:1045000012E97D5000FF48D51CF5873B830C5544CC
:10451000494594544451838C0F2649A310440C39C7
:10452000C49033D0300491421029430D42141964D1
:104530008D311809A48D30DC08C39D576089438EE6
:10454000489620838D505662E8950F0600000000C3
:1045500004FFFF00001202050405060104061827E7
:1045600000F81EF81EF7000000000308200BF80CEE
:10457000F887FFFFFFCF002A31F80CF8870F964924
:1045800028D582216D10524431828C421E28E4814C
:10459000729C331141F48820AD88B20A29A998820F
:1045A0008A2969A0F1E19F032B1BF80CF88777CBD0
:1045B000AC6F3D50C803853C50C8038595597F1F9B
:1045C000FE49002C18F80CF887FFFF6B641A79E29B
:1045D00025CD2C935032293A6C70002D16F80CF82A
:1045E00087FFFA03C33C30CC03C33C303EFCFF2DB5
:1045F000002E12F80CF887FFFF73831679E2250B63
:104600001D1F1E2F2FF80C781C95CC32C9AC649955
:104610004596596499459659269965925926996502
:1046200092592699952CB3C8328B2CB34C62C5870E
:104630006700304DF80CF807DA44E4D872CA0893E2
:104640008A29A89872CA31A61C63C839A598444A19
:1046500021A190528628A410220A29838C42CA18CC
:10466000A412A314520229852453CA39A598538C45
:1046700039B5634A496698E4167329960FDF03310A
:1046800019F80CF8079C480391538CB5124A13A4EF
:10469000CCFAFFFF3E7C0F00322FF80CF807DA400F
:1046A000C59A7AA914732A3452492195599B6416E4
:1046B0005949134D2CB2DE24B3C807867960980798
:1046C0008679607CF812003334F80CF807DA40C5BC
:1046D0005C7A8A14A3C429B4CC32C92CD134E5D273
:1046E000536EC9330B2DB396422A48A482C629A81B
:1046F00090731E08AAB1F5CE87EF013435F80CF897
:104700008700999534F182E8254742712494464404
:104710006164144646598414454A51A494444C415A
:104720000F14F240210F14F2407965D6EFC3C70091
:104730003538F80CF807F501711E10E701711E10ED
:10474000A7CCBAC998532F3D1090210691635248C7
:1047500085125A660D0545CE48C59463CC21063DA9
:1047600010925BEB9D0FDF033642F80CF807DC403C
:10477000C59A7AE81092CA11A9CC32C92CC2AC975A
:104780001E08E80171D030C79C620A2AA624624A3A
:104790002AA5A4524A2AA5A4624822A73AC61464AC
:1047A00086514EB5A6A0F9F03900372DF80CF80760
:1047B000F481611E18E681611E18B2CC22CB2CB2A6
:1047C000CC32C9AC6499659259C932CB24B3926595
:1047D00056B2CCEAC337013840F80CF807DB40C5C5
:1047E0009A7AC90C938A29A73E540C49A5146544AA
:1047F00061CB25B758114695525039E590444C4944
:10480000A594544A49A594548A39C69862CE032186
:1048100039B6DEF9F039003941F80CF807DA40D53D
:10482000D872C910838A29A7A0620A2AA624624ADC
:1048300022A624624A2AA61C630C41E701711E10BD
:104840002985B28C20949A550AA8A4614C22C424CC
:10485000A71A5BD07CF820003A1AF80CF8873F3D85
:104860006891275EB2D0F1E1DB831679E2250B1D5A
:104870001F1E00000004FFFF00000000A31B000833
:10488000A71B0008C71600081815AF19FF1815AEAA
:1048900019FF1815A115C819FF1815A015C019FF83
:1048A0001815AE15D5168015A8163F15D316001588
:1048B00040158D16141520160015A115C815DA1609
:1048C00012158116CF15D916F115DB1640152E15C8
:1048D000A415A619FF1815AE15D5168015A8163FF4
:1048E00015D316001540158D16141520160015A1A8
:1048F00015C815DA1612158116EF15D916A115DB94
:104900001600152E15A415A619FF1815AE15D516E7
:104910008015A8163F15D316001540158D161415D1
:1049200020160015A115C815DA1602158116CF1527
:10493000D916F115DB1640152E15A415A619FF186A
:1049400015AE15A415D5165015A8163F15D316008B
:10495000154015AD168B15D9162215DB16351532F7
:10496000158116FF15A615DA161219FF0001140A93
:104970006464323200127A000004289610080000A5
:10498000800040000001140A6464323200093D00D6
:10499000030428961008020280004000BC49000869
:1049A000000000201000000034110008CC4900086D
:1049B00010000020200A000044110008010000003F
:0C49C00010000000000000000024F400C3
:04000005080000ED02
:00000001FF
